{
	"Article.sol": {
		"ArticleContract": {
			"abi": [
				{
					"anonymous": false,
					"inputs": [
						{
							"indexed": false,
							"internalType": "address",
							"name": "recipient",
							"type": "address"
						},
						{
							"indexed": false,
							"internalType": "uint256",
							"name": "articleId",
							"type": "uint256"
						}
					],
					"name": "AddArticle",
					"type": "event"
				},
				{
					"anonymous": false,
					"inputs": [
						{
							"indexed": false,
							"internalType": "uint256",
							"name": "articleId",
							"type": "uint256"
						}
					],
					"name": "DownVote",
					"type": "event"
				},
				{
					"anonymous": false,
					"inputs": [
						{
							"indexed": false,
							"internalType": "uint256",
							"name": "articleId",
							"type": "uint256"
						}
					],
					"name": "UpVote",
					"type": "event"
				},
				{
					"inputs": [
						{
							"internalType": "string",
							"name": "title",
							"type": "string"
						},
						{
							"internalType": "string",
							"name": "content",
							"type": "string"
						}
					],
					"name": "addArticle",
					"outputs": [],
					"stateMutability": "nonpayable",
					"type": "function"
				},
				{
					"inputs": [
						{
							"internalType": "uint256",
							"name": "articleId",
							"type": "uint256"
						}
					],
					"name": "downVote",
					"outputs": [],
					"stateMutability": "nonpayable",
					"type": "function"
				},
				{
					"inputs": [],
					"name": "getArticles",
					"outputs": [
						{
							"components": [
								{
									"internalType": "uint256",
									"name": "id",
									"type": "uint256"
								},
								{
									"internalType": "address",
									"name": "userAddr",
									"type": "address"
								},
								{
									"internalType": "string",
									"name": "title",
									"type": "string"
								},
								{
									"internalType": "string",
									"name": "content",
									"type": "string"
								},
								{
									"internalType": "uint256",
									"name": "upvotes",
									"type": "uint256"
								},
								{
									"internalType": "uint256",
									"name": "downvotes",
									"type": "uint256"
								},
								{
									"internalType": "bool",
									"name": "isvalidated",
									"type": "bool"
								},
								{
									"internalType": "address",
									"name": "validator",
									"type": "address"
								}
							],
							"internalType": "struct ArticleContract.Article[]",
							"name": "",
							"type": "tuple[]"
						}
					],
					"stateMutability": "view",
					"type": "function"
				},
				{
					"inputs": [],
					"name": "getMyArticles",
					"outputs": [
						{
							"components": [
								{
									"internalType": "uint256",
									"name": "id",
									"type": "uint256"
								},
								{
									"internalType": "address",
									"name": "userAddr",
									"type": "address"
								},
								{
									"internalType": "string",
									"name": "title",
									"type": "string"
								},
								{
									"internalType": "string",
									"name": "content",
									"type": "string"
								},
								{
									"internalType": "uint256",
									"name": "upvotes",
									"type": "uint256"
								},
								{
									"internalType": "uint256",
									"name": "downvotes",
									"type": "uint256"
								},
								{
									"internalType": "bool",
									"name": "isvalidated",
									"type": "bool"
								},
								{
									"internalType": "address",
									"name": "validator",
									"type": "address"
								}
							],
							"internalType": "struct ArticleContract.Article[]",
							"name": "",
							"type": "tuple[]"
						}
					],
					"stateMutability": "view",
					"type": "function"
				},
				{
					"inputs": [
						{
							"internalType": "uint256",
							"name": "articleId",
							"type": "uint256"
						}
					],
					"name": "upVote",
					"outputs": [],
					"stateMutability": "nonpayable",
					"type": "function"
				}
			],
			"devdoc": {
				"kind": "dev",
				"methods": {},
				"version": 1
			},
			"evm": {
				"assembly": "    /* \"Article.sol\":27:2379  contract ArticleContract{... */\n  mstore(0x40, 0x80)\n  callvalue\n  dup1\n  iszero\n  tag_1\n  jumpi\n  0x00\n  dup1\n  revert\ntag_1:\n  pop\n  dataSize(sub_0)\n  dup1\n  dataOffset(sub_0)\n  0x00\n  codecopy\n  0x00\n  return\nstop\n\nsub_0: assembly {\n        /* \"Article.sol\":27:2379  contract ArticleContract{... */\n      mstore(0x40, 0x80)\n      callvalue\n      dup1\n      iszero\n      tag_1\n      jumpi\n      0x00\n      dup1\n      revert\n    tag_1:\n      pop\n      jumpi(tag_2, lt(calldatasize, 0x04))\n      shr(0xe0, calldataload(0x00))\n      dup1\n      0x1ae9392d\n      eq\n      tag_3\n      jumpi\n      dup1\n      0x6529f44a\n      eq\n      tag_4\n      jumpi\n      dup1\n      0x6ec67ec9\n      eq\n      tag_5\n      jumpi\n      dup1\n      0xb5df05fc\n      eq\n      tag_6\n      jumpi\n      dup1\n      0xec859db5\n      eq\n      tag_7\n      jumpi\n    tag_2:\n      0x00\n      dup1\n      revert\n        /* \"Article.sol\":2192:2371  function downVote(uint articleId)  external{... */\n    tag_3:\n      tag_8\n      0x04\n      dup1\n      calldatasize\n      sub\n      dup2\n      add\n      swap1\n      tag_9\n      swap2\n      swap1\n      tag_10\n      jump\t// in\n    tag_9:\n      tag_11\n      jump\t// in\n    tag_8:\n      stop\n        /* \"Article.sol\":943:1468  function getArticles() external view returns(Article[] memory ){... */\n    tag_4:\n      tag_12\n      tag_13\n      jump\t// in\n    tag_12:\n      mload(0x40)\n      tag_14\n      swap2\n      swap1\n      tag_15\n      jump\t// in\n    tag_14:\n      mload(0x40)\n      dup1\n      swap2\n      sub\n      swap1\n      return\n        /* \"Article.sol\":626:937  function addArticle(string memory title,  string memory content) external{... */\n    tag_5:\n      tag_16\n      0x04\n      dup1\n      calldatasize\n      sub\n      dup2\n      add\n      swap1\n      tag_17\n      swap2\n      swap1\n      tag_18\n      jump\t// in\n    tag_17:\n      tag_19\n      jump\t// in\n    tag_16:\n      stop\n        /* \"Article.sol\":1474:2007  function getMyArticles() external view returns ( Article[] memory ){... */\n    tag_6:\n      tag_20\n      tag_21\n      jump\t// in\n    tag_20:\n      mload(0x40)\n      tag_22\n      swap2\n      swap1\n      tag_15\n      jump\t// in\n    tag_22:\n      mload(0x40)\n      dup1\n      swap2\n      sub\n      swap1\n      return\n        /* \"Article.sol\":2013:2186  function upVote(uint articleId)  external{... */\n    tag_7:\n      tag_23\n      0x04\n      dup1\n      calldatasize\n      sub\n      dup2\n      add\n      swap1\n      tag_24\n      swap2\n      swap1\n      tag_10\n      jump\t// in\n    tag_24:\n      tag_25\n      jump\t// in\n    tag_23:\n      stop\n        /* \"Article.sol\":2192:2371  function downVote(uint articleId)  external{... */\n    tag_11:\n        /* \"Article.sol\":2245:2255  uint votes */\n      0x00\n        /* \"Article.sol\":2256:2264  articles */\n      dup1\n        /* \"Article.sol\":2265:2274  articleId */\n      dup3\n        /* \"Article.sol\":2256:2275  articles[articleId] */\n      dup2\n      sload\n      dup2\n      lt\n      tag_27\n      jumpi\n      tag_28\n      tag_29\n      jump\t// in\n    tag_28:\n    tag_27:\n      swap1\n      0x00\n      mstore\n      keccak256(0x00, 0x20)\n      swap1\n      0x07\n      mul\n      add\n        /* \"Article.sol\":2256:2285  articles[articleId].downvotes */\n      0x05\n      add\n      sload\n        /* \"Article.sol\":2245:2285  uint votes=articles[articleId].downvotes */\n      swap1\n      pop\n        /* \"Article.sol\":2329:2330  1 */\n      0x01\n        /* \"Article.sol\":2323:2328  votes */\n      dup2\n        /* \"Article.sol\":2323:2330  votes-1 */\n      tag_31\n      swap2\n      swap1\n      tag_32\n      jump\t// in\n    tag_31:\n        /* \"Article.sol\":2295:2303  articles */\n      0x00\n        /* \"Article.sol\":2304:2313  articleId */\n      dup4\n        /* \"Article.sol\":2295:2314  articles[articleId] */\n      dup2\n      sload\n      dup2\n      lt\n      tag_33\n      jumpi\n      tag_34\n      tag_29\n      jump\t// in\n    tag_34:\n    tag_33:\n      swap1\n      0x00\n      mstore\n      keccak256(0x00, 0x20)\n      swap1\n      0x07\n      mul\n      add\n        /* \"Article.sol\":2295:2322  articles[articleId].upvotes */\n      0x04\n      add\n        /* \"Article.sol\":2295:2330  articles[articleId].upvotes=votes-1 */\n      dup2\n      swap1\n      sstore\n      pop\n        /* \"Article.sol\":2345:2364  DownVote(articleId) */\n      0xb04f0eb983ca25421a017dad0ac789ba4939c5a3bc43d322943cd64257424a2b\n        /* \"Article.sol\":2354:2363  articleId */\n      dup3\n        /* \"Article.sol\":2345:2364  DownVote(articleId) */\n      mload(0x40)\n      tag_36\n      swap2\n      swap1\n      tag_37\n      jump\t// in\n    tag_36:\n      mload(0x40)\n      dup1\n      swap2\n      sub\n      swap1\n      log1\n        /* \"Article.sol\":2235:2371  {... */\n      pop\n        /* \"Article.sol\":2192:2371  function downVote(uint articleId)  external{... */\n      pop\n      jump\t// out\n        /* \"Article.sol\":943:1468  function getArticles() external view returns(Article[] memory ){... */\n    tag_13:\n        /* \"Article.sol\":988:1004  Article[] memory */\n      0x60\n        /* \"Article.sol\":1016:1042  Article[] memory temporary */\n      0x00\n        /* \"Article.sol\":1059:1067  articles */\n      dup1\n        /* \"Article.sol\":1059:1074  articles.length */\n      dup1\n      sload\n      swap1\n      pop\n        /* \"Article.sol\":1045:1075  new Article[](articles.length) */\n      0xffffffffffffffff\n      dup2\n      gt\n      iszero\n      tag_39\n      jumpi\n      tag_40\n      tag_41\n      jump\t// in\n    tag_40:\n    tag_39:\n      mload(0x40)\n      swap1\n      dup1\n      dup3\n      mstore\n      dup1\n      0x20\n      mul\n      0x20\n      add\n      dup3\n      add\n      0x40\n      mstore\n      dup1\n      iszero\n      tag_42\n      jumpi\n      dup2\n      0x20\n      add\n    tag_43:\n      tag_44\n      tag_45\n      jump\t// in\n    tag_44:\n      dup2\n      mstore\n      0x20\n      add\n      swap1\n      0x01\n      swap1\n      sub\n      swap1\n      dup2\n      tag_43\n      jumpi\n      swap1\n      pop\n    tag_42:\n      pop\n        /* \"Article.sol\":1016:1075  Article[] memory temporary = new Article[](articles.length) */\n      swap1\n      pop\n        /* \"Article.sol\":1085:1097  uint counter */\n      0x00\n        /* \"Article.sol\":1115:1121  uint i */\n      dup1\n        /* \"Article.sol\":1110:1294  for (uint i = 0; i < articles.length; i++) {... */\n    tag_46:\n        /* \"Article.sol\":1131:1139  articles */\n      0x00\n        /* \"Article.sol\":1131:1146  articles.length */\n      dup1\n      sload\n      swap1\n      pop\n        /* \"Article.sol\":1127:1128  i */\n      dup2\n        /* \"Article.sol\":1127:1146  i < articles.length */\n      lt\n        /* \"Article.sol\":1110:1294  for (uint i = 0; i < articles.length; i++) {... */\n      iszero\n      tag_47\n      jumpi\n        /* \"Article.sol\":1170:1178  articles */\n      0x00\n        /* \"Article.sol\":1179:1180  i */\n      dup2\n        /* \"Article.sol\":1170:1181  articles[i] */\n      dup2\n      sload\n      dup2\n      lt\n      tag_49\n      jumpi\n      tag_50\n      tag_29\n      jump\t// in\n    tag_50:\n    tag_49:\n      swap1\n      0x00\n      mstore\n      keccak256(0x00, 0x20)\n      swap1\n      0x07\n      mul\n      add\n        /* \"Article.sol\":1170:1193  articles[i].isvalidated */\n      0x06\n      add\n      0x00\n      swap1\n      sload\n      swap1\n      0x0100\n      exp\n      swap1\n      div\n      0xff\n      and\n        /* \"Article.sol\":1167:1284  if(articles[i].isvalidated){... */\n      iszero\n      tag_52\n      jumpi\n        /* \"Article.sol\":1231:1239  articles */\n      0x00\n        /* \"Article.sol\":1240:1241  i */\n      dup2\n        /* \"Article.sol\":1231:1242  articles[i] */\n      dup2\n      sload\n      dup2\n      lt\n      tag_53\n      jumpi\n      tag_54\n      tag_29\n      jump\t// in\n    tag_54:\n    tag_53:\n      swap1\n      0x00\n      mstore\n      keccak256(0x00, 0x20)\n      swap1\n      0x07\n      mul\n      add\n        /* \"Article.sol\":1212:1242  temporary[counter]=articles[i] */\n      mload(0x40)\n      dup1\n      0x0100\n      add\n      0x40\n      mstore\n      swap1\n      dup2\n      0x00\n      dup3\n      add\n      sload\n      dup2\n      mstore\n      0x20\n      add\n      0x01\n      dup3\n      add\n      0x00\n      swap1\n      sload\n      swap1\n      0x0100\n      exp\n      swap1\n      div\n      0xffffffffffffffffffffffffffffffffffffffff\n      and\n      0xffffffffffffffffffffffffffffffffffffffff\n      and\n      0xffffffffffffffffffffffffffffffffffffffff\n      and\n      dup2\n      mstore\n      0x20\n      add\n      0x02\n      dup3\n      add\n      dup1\n      sload\n      tag_56\n      swap1\n      tag_57\n      jump\t// in\n    tag_56:\n      dup1\n      0x1f\n      add\n      0x20\n      dup1\n      swap2\n      div\n      mul\n      0x20\n      add\n      mload(0x40)\n      swap1\n      dup2\n      add\n      0x40\n      mstore\n      dup1\n      swap3\n      swap2\n      swap1\n      dup2\n      dup2\n      mstore\n      0x20\n      add\n      dup3\n      dup1\n      sload\n      tag_58\n      swap1\n      tag_57\n      jump\t// in\n    tag_58:\n      dup1\n      iszero\n      tag_59\n      jumpi\n      dup1\n      0x1f\n      lt\n      tag_60\n      jumpi\n      0x0100\n      dup1\n      dup4\n      sload\n      div\n      mul\n      dup4\n      mstore\n      swap2\n      0x20\n      add\n      swap2\n      jump(tag_59)\n    tag_60:\n      dup3\n      add\n      swap2\n      swap1\n      0x00\n      mstore\n      keccak256(0x00, 0x20)\n      swap1\n    tag_61:\n      dup2\n      sload\n      dup2\n      mstore\n      swap1\n      0x01\n      add\n      swap1\n      0x20\n      add\n      dup1\n      dup4\n      gt\n      tag_61\n      jumpi\n      dup3\n      swap1\n      sub\n      0x1f\n      and\n      dup3\n      add\n      swap2\n    tag_59:\n      pop\n      pop\n      pop\n      pop\n      pop\n      dup2\n      mstore\n      0x20\n      add\n      0x03\n      dup3\n      add\n      dup1\n      sload\n      tag_62\n      swap1\n      tag_57\n      jump\t// in\n    tag_62:\n      dup1\n      0x1f\n      add\n      0x20\n      dup1\n      swap2\n      div\n      mul\n      0x20\n      add\n      mload(0x40)\n      swap1\n      dup2\n      add\n      0x40\n      mstore\n      dup1\n      swap3\n      swap2\n      swap1\n      dup2\n      dup2\n      mstore\n      0x20\n      add\n      dup3\n      dup1\n      sload\n      tag_63\n      swap1\n      tag_57\n      jump\t// in\n    tag_63:\n      dup1\n      iszero\n      tag_64\n      jumpi\n      dup1\n      0x1f\n      lt\n      tag_65\n      jumpi\n      0x0100\n      dup1\n      dup4\n      sload\n      div\n      mul\n      dup4\n      mstore\n      swap2\n      0x20\n      add\n      swap2\n      jump(tag_64)\n    tag_65:\n      dup3\n      add\n      swap2\n      swap1\n      0x00\n      mstore\n      keccak256(0x00, 0x20)\n      swap1\n    tag_66:\n      dup2\n      sload\n      dup2\n      mstore\n      swap1\n      0x01\n      add\n      swap1\n      0x20\n      add\n      dup1\n      dup4\n      gt\n      tag_66\n      jumpi\n      dup3\n      swap1\n      sub\n      0x1f\n      and\n      dup3\n      add\n      swap2\n    tag_64:\n      pop\n      pop\n      pop\n      pop\n      pop\n      dup2\n      mstore\n      0x20\n      add\n      0x04\n      dup3\n      add\n      sload\n      dup2\n      mstore\n      0x20\n      add\n      0x05\n      dup3\n      add\n      sload\n      dup2\n      mstore\n      0x20\n      add\n      0x06\n      dup3\n      add\n      0x00\n      swap1\n      sload\n      swap1\n      0x0100\n      exp\n      swap1\n      div\n      0xff\n      and\n      iszero\n      iszero\n      iszero\n      iszero\n      dup2\n      mstore\n      0x20\n      add\n      0x06\n      dup3\n      add\n      0x01\n      swap1\n      sload\n      swap1\n      0x0100\n      exp\n      swap1\n      div\n      0xffffffffffffffffffffffffffffffffffffffff\n      and\n      0xffffffffffffffffffffffffffffffffffffffff\n      and\n      0xffffffffffffffffffffffffffffffffffffffff\n      and\n      dup2\n      mstore\n      pop\n      pop\n        /* \"Article.sol\":1212:1221  temporary */\n      dup4\n        /* \"Article.sol\":1222:1229  counter */\n      dup4\n        /* \"Article.sol\":1212:1230  temporary[counter] */\n      dup2\n      mload\n      dup2\n      lt\n      tag_67\n      jumpi\n      tag_68\n      tag_29\n      jump\t// in\n    tag_68:\n    tag_67:\n      0x20\n      mul\n      0x20\n      add\n      add\n        /* \"Article.sol\":1212:1242  temporary[counter]=articles[i] */\n      dup2\n      swap1\n      mstore\n      pop\n        /* \"Article.sol\":1260:1269  counter++ */\n      dup2\n      dup1\n      tag_69\n      swap1\n      tag_70\n      jump\t// in\n    tag_69:\n      swap3\n      pop\n      pop\n        /* \"Article.sol\":1167:1284  if(articles[i].isvalidated){... */\n    tag_52:\n        /* \"Article.sol\":1148:1151  i++ */\n      dup1\n      dup1\n      tag_71\n      swap1\n      tag_70\n      jump\t// in\n    tag_71:\n      swap2\n      pop\n      pop\n        /* \"Article.sol\":1110:1294  for (uint i = 0; i < articles.length; i++) {... */\n      jump(tag_46)\n    tag_47:\n      pop\n        /* \"Article.sol\":1304:1327  Article[] memory result */\n      0x00\n        /* \"Article.sol\":1344:1351  counter */\n      dup2\n        /* \"Article.sol\":1330:1352  new Article[](counter) */\n      0xffffffffffffffff\n      dup2\n      gt\n      iszero\n      tag_72\n      jumpi\n      tag_73\n      tag_41\n      jump\t// in\n    tag_73:\n    tag_72:\n      mload(0x40)\n      swap1\n      dup1\n      dup3\n      mstore\n      dup1\n      0x20\n      mul\n      0x20\n      add\n      dup3\n      add\n      0x40\n      mstore\n      dup1\n      iszero\n      tag_74\n      jumpi\n      dup2\n      0x20\n      add\n    tag_75:\n      tag_76\n      tag_45\n      jump\t// in\n    tag_76:\n      dup2\n      mstore\n      0x20\n      add\n      swap1\n      0x01\n      swap1\n      sub\n      swap1\n      dup2\n      tag_75\n      jumpi\n      swap1\n      pop\n    tag_74:\n      pop\n        /* \"Article.sol\":1304:1352  Article[] memory result = new Article[](counter) */\n      swap1\n      pop\n        /* \"Article.sol\":1366:1372  uint i */\n      0x00\n        /* \"Article.sol\":1362:1439  for(uint i=0; i<counter; i++){... */\n    tag_77:\n        /* \"Article.sol\":1378:1385  counter */\n      dup3\n        /* \"Article.sol\":1376:1377  i */\n      dup2\n        /* \"Article.sol\":1376:1385  i<counter */\n      lt\n        /* \"Article.sol\":1362:1439  for(uint i=0; i<counter; i++){... */\n      iszero\n      tag_78\n      jumpi\n        /* \"Article.sol\":1416:1425  temporary */\n      dup4\n        /* \"Article.sol\":1426:1427  i */\n      dup2\n        /* \"Article.sol\":1416:1428  temporary[i] */\n      dup2\n      mload\n      dup2\n      lt\n      tag_80\n      jumpi\n      tag_81\n      tag_29\n      jump\t// in\n    tag_81:\n    tag_80:\n      0x20\n      mul\n      0x20\n      add\n      add\n      mload\n        /* \"Article.sol\":1405:1411  result */\n      dup3\n        /* \"Article.sol\":1412:1413  i */\n      dup3\n        /* \"Article.sol\":1405:1414  result[i] */\n      dup2\n      mload\n      dup2\n      lt\n      tag_82\n      jumpi\n      tag_83\n      tag_29\n      jump\t// in\n    tag_83:\n    tag_82:\n      0x20\n      mul\n      0x20\n      add\n      add\n        /* \"Article.sol\":1405:1428  result[i]= temporary[i] */\n      dup2\n      swap1\n      mstore\n      pop\n        /* \"Article.sol\":1387:1390  i++ */\n      dup1\n      dup1\n      tag_84\n      swap1\n      tag_70\n      jump\t// in\n    tag_84:\n      swap2\n      pop\n      pop\n        /* \"Article.sol\":1362:1439  for(uint i=0; i<counter; i++){... */\n      jump(tag_77)\n    tag_78:\n      pop\n        /* \"Article.sol\":1455:1461  result */\n      dup1\n        /* \"Article.sol\":1448:1461  return result */\n      swap4\n      pop\n      pop\n      pop\n      pop\n        /* \"Article.sol\":943:1468  function getArticles() external view returns(Article[] memory ){... */\n      swap1\n      jump\t// out\n        /* \"Article.sol\":626:937  function addArticle(string memory title,  string memory content) external{... */\n    tag_19:\n        /* \"Article.sol\":709:723  uint articleId */\n      0x00\n        /* \"Article.sol\":726:734  articles */\n      dup1\n        /* \"Article.sol\":726:741  articles.length */\n      dup1\n      sload\n      swap1\n      pop\n        /* \"Article.sol\":709:741  uint articleId = articles.length */\n      swap1\n      pop\n        /* \"Article.sol\":751:759  articles */\n      0x00\n        /* \"Article.sol\":765:834  Article(articleId, msg.sender,title, content, 0,0, false, address(0)) */\n      mload(0x40)\n      dup1\n      0x0100\n      add\n      0x40\n      mstore\n      dup1\n        /* \"Article.sol\":773:782  articleId */\n      dup4\n        /* \"Article.sol\":765:834  Article(articleId, msg.sender,title, content, 0,0, false, address(0)) */\n      dup2\n      mstore\n      0x20\n      add\n        /* \"Article.sol\":784:794  msg.sender */\n      caller\n        /* \"Article.sol\":765:834  Article(articleId, msg.sender,title, content, 0,0, false, address(0)) */\n      0xffffffffffffffffffffffffffffffffffffffff\n      and\n      dup2\n      mstore\n      0x20\n      add\n        /* \"Article.sol\":795:800  title */\n      dup6\n        /* \"Article.sol\":765:834  Article(articleId, msg.sender,title, content, 0,0, false, address(0)) */\n      dup2\n      mstore\n      0x20\n      add\n        /* \"Article.sol\":802:809  content */\n      dup5\n        /* \"Article.sol\":765:834  Article(articleId, msg.sender,title, content, 0,0, false, address(0)) */\n      dup2\n      mstore\n      0x20\n      add\n        /* \"Article.sol\":811:812  0 */\n      0x00\n        /* \"Article.sol\":765:834  Article(articleId, msg.sender,title, content, 0,0, false, address(0)) */\n      dup2\n      mstore\n      0x20\n      add\n        /* \"Article.sol\":813:814  0 */\n      0x00\n        /* \"Article.sol\":765:834  Article(articleId, msg.sender,title, content, 0,0, false, address(0)) */\n      dup2\n      mstore\n      0x20\n      add\n        /* \"Article.sol\":816:821  false */\n      0x00\n        /* \"Article.sol\":765:834  Article(articleId, msg.sender,title, content, 0,0, false, address(0)) */\n      iszero\n      iszero\n      dup2\n      mstore\n      0x20\n      add\n        /* \"Article.sol\":831:832  0 */\n      0x00\n        /* \"Article.sol\":765:834  Article(articleId, msg.sender,title, content, 0,0, false, address(0)) */\n      0xffffffffffffffffffffffffffffffffffffffff\n      and\n      dup2\n      mstore\n      pop\n        /* \"Article.sol\":751:835  articles.push(Article(articleId, msg.sender,title, content, 0,0, false, address(0))) */\n      swap1\n      dup1\n      0x01\n      dup2\n      sload\n      add\n      dup1\n      dup3\n      sstore\n      dup1\n      swap2\n      pop\n      pop\n      0x01\n      swap1\n      sub\n      swap1\n      0x00\n      mstore\n      keccak256(0x00, 0x20)\n      swap1\n      0x07\n      mul\n      add\n      0x00\n      swap1\n      swap2\n      swap1\n      swap2\n      swap1\n      swap2\n      pop\n      0x00\n      dup3\n      add\n      mload\n      dup2\n      0x00\n      add\n      sstore\n      0x20\n      dup3\n      add\n      mload\n      dup2\n      0x01\n      add\n      exp(0x0100, 0x00)\n      dup2\n      sload\n      dup2\n      0xffffffffffffffffffffffffffffffffffffffff\n      mul\n      not\n      and\n      swap1\n      dup4\n      0xffffffffffffffffffffffffffffffffffffffff\n      and\n      mul\n      or\n      swap1\n      sstore\n      pop\n      0x40\n      dup3\n      add\n      mload\n      dup2\n      0x02\n      add\n      swap1\n      dup2\n      tag_87\n      swap2\n      swap1\n      tag_88\n      jump\t// in\n    tag_87:\n      pop\n      0x60\n      dup3\n      add\n      mload\n      dup2\n      0x03\n      add\n      swap1\n      dup2\n      tag_89\n      swap2\n      swap1\n      tag_88\n      jump\t// in\n    tag_89:\n      pop\n      0x80\n      dup3\n      add\n      mload\n      dup2\n      0x04\n      add\n      sstore\n      0xa0\n      dup3\n      add\n      mload\n      dup2\n      0x05\n      add\n      sstore\n      0xc0\n      dup3\n      add\n      mload\n      dup2\n      0x06\n      add\n      exp(0x0100, 0x00)\n      dup2\n      sload\n      dup2\n      0xff\n      mul\n      not\n      and\n      swap1\n      dup4\n      iszero\n      iszero\n      mul\n      or\n      swap1\n      sstore\n      pop\n      0xe0\n      dup3\n      add\n      mload\n      dup2\n      0x06\n      add\n      exp(0x0100, 0x01)\n      dup2\n      sload\n      dup2\n      0xffffffffffffffffffffffffffffffffffffffff\n      mul\n      not\n      and\n      swap1\n      dup4\n      0xffffffffffffffffffffffffffffffffffffffff\n      and\n      mul\n      or\n      swap1\n      sstore\n      pop\n      pop\n      pop\n        /* \"Article.sol\":872:882  msg.sender */\n      caller\n        /* \"Article.sol\":845:858  articleToUser */\n      0x01\n        /* \"Article.sol\":845:869  articleToUser[articleId] */\n      0x00\n        /* \"Article.sol\":859:868  articleId */\n      dup4\n        /* \"Article.sol\":845:869  articleToUser[articleId] */\n      dup2\n      mstore\n      0x20\n      add\n      swap1\n      dup2\n      mstore\n      0x20\n      add\n      0x00\n      keccak256\n      0x00\n        /* \"Article.sol\":845:882  articleToUser[articleId] = msg.sender */\n      0x0100\n      exp\n      dup2\n      sload\n      dup2\n      0xffffffffffffffffffffffffffffffffffffffff\n      mul\n      not\n      and\n      swap1\n      dup4\n      0xffffffffffffffffffffffffffffffffffffffff\n      and\n      mul\n      or\n      swap1\n      sstore\n      pop\n        /* \"Article.sol\":897:930  AddArticle(msg.sender, articleId) */\n      0x9654e79a6f29fff90577ee2c24638a110a77cabb965a5cf60beb0abf899d5dc9\n        /* \"Article.sol\":908:918  msg.sender */\n      caller\n        /* \"Article.sol\":920:929  articleId */\n      dup3\n        /* \"Article.sol\":897:930  AddArticle(msg.sender, articleId) */\n      mload(0x40)\n      tag_90\n      swap3\n      swap2\n      swap1\n      tag_91\n      jump\t// in\n    tag_90:\n      mload(0x40)\n      dup1\n      swap2\n      sub\n      swap1\n      log1\n        /* \"Article.sol\":699:937  {... */\n      pop\n        /* \"Article.sol\":626:937  function addArticle(string memory title,  string memory content) external{... */\n      pop\n      pop\n      jump\t// out\n        /* \"Article.sol\":1474:2007  function getMyArticles() external view returns ( Article[] memory ){... */\n    tag_21:\n        /* \"Article.sol\":1523:1539  Article[] memory */\n      0x60\n        /* \"Article.sol\":1551:1577  Article[] memory temporary */\n      0x00\n        /* \"Article.sol\":1594:1602  articles */\n      dup1\n        /* \"Article.sol\":1594:1609  articles.length */\n      dup1\n      sload\n      swap1\n      pop\n        /* \"Article.sol\":1580:1610  new Article[](articles.length) */\n      0xffffffffffffffff\n      dup2\n      gt\n      iszero\n      tag_93\n      jumpi\n      tag_94\n      tag_41\n      jump\t// in\n    tag_94:\n    tag_93:\n      mload(0x40)\n      swap1\n      dup1\n      dup3\n      mstore\n      dup1\n      0x20\n      mul\n      0x20\n      add\n      dup3\n      add\n      0x40\n      mstore\n      dup1\n      iszero\n      tag_95\n      jumpi\n      dup2\n      0x20\n      add\n    tag_96:\n      tag_97\n      tag_45\n      jump\t// in\n    tag_97:\n      dup2\n      mstore\n      0x20\n      add\n      swap1\n      0x01\n      swap1\n      sub\n      swap1\n      dup2\n      tag_96\n      jumpi\n      swap1\n      pop\n    tag_95:\n      pop\n        /* \"Article.sol\":1551:1610  Article[] memory temporary = new Article[](articles.length) */\n      swap1\n      pop\n        /* \"Article.sol\":1620:1632  uint counter */\n      0x00\n        /* \"Article.sol\":1650:1656  uint i */\n      dup1\n        /* \"Article.sol\":1646:1832  for(uint i=0; i<articles.length; i++){... */\n    tag_98:\n        /* \"Article.sol\":1662:1670  articles */\n      0x00\n        /* \"Article.sol\":1662:1677  articles.length */\n      dup1\n      sload\n      swap1\n      pop\n        /* \"Article.sol\":1660:1661  i */\n      dup2\n        /* \"Article.sol\":1660:1677  i<articles.length */\n      lt\n        /* \"Article.sol\":1646:1832  for(uint i=0; i<articles.length; i++){... */\n      iszero\n      tag_99\n      jumpi\n        /* \"Article.sol\":1720:1730  msg.sender */\n      caller\n        /* \"Article.sol\":1700:1730  articleToUser[i] == msg.sender */\n      0xffffffffffffffffffffffffffffffffffffffff\n      and\n        /* \"Article.sol\":1700:1713  articleToUser */\n      0x01\n        /* \"Article.sol\":1700:1716  articleToUser[i] */\n      0x00\n        /* \"Article.sol\":1714:1715  i */\n      dup4\n        /* \"Article.sol\":1700:1716  articleToUser[i] */\n      dup2\n      mstore\n      0x20\n      add\n      swap1\n      dup2\n      mstore\n      0x20\n      add\n      0x00\n      keccak256\n      0x00\n      swap1\n      sload\n      swap1\n      0x0100\n      exp\n      swap1\n      div\n      0xffffffffffffffffffffffffffffffffffffffff\n      and\n        /* \"Article.sol\":1700:1730  articleToUser[i] == msg.sender */\n      0xffffffffffffffffffffffffffffffffffffffff\n      and\n      sub\n        /* \"Article.sol\":1697:1822  if(articleToUser[i] == msg.sender ){... */\n      tag_101\n      jumpi\n        /* \"Article.sol\":1769:1777  articles */\n      0x00\n        /* \"Article.sol\":1778:1779  i */\n      dup2\n        /* \"Article.sol\":1769:1780  articles[i] */\n      dup2\n      sload\n      dup2\n      lt\n      tag_102\n      jumpi\n      tag_103\n      tag_29\n      jump\t// in\n    tag_103:\n    tag_102:\n      swap1\n      0x00\n      mstore\n      keccak256(0x00, 0x20)\n      swap1\n      0x07\n      mul\n      add\n        /* \"Article.sol\":1750:1780  temporary[counter]=articles[i] */\n      mload(0x40)\n      dup1\n      0x0100\n      add\n      0x40\n      mstore\n      swap1\n      dup2\n      0x00\n      dup3\n      add\n      sload\n      dup2\n      mstore\n      0x20\n      add\n      0x01\n      dup3\n      add\n      0x00\n      swap1\n      sload\n      swap1\n      0x0100\n      exp\n      swap1\n      div\n      0xffffffffffffffffffffffffffffffffffffffff\n      and\n      0xffffffffffffffffffffffffffffffffffffffff\n      and\n      0xffffffffffffffffffffffffffffffffffffffff\n      and\n      dup2\n      mstore\n      0x20\n      add\n      0x02\n      dup3\n      add\n      dup1\n      sload\n      tag_105\n      swap1\n      tag_57\n      jump\t// in\n    tag_105:\n      dup1\n      0x1f\n      add\n      0x20\n      dup1\n      swap2\n      div\n      mul\n      0x20\n      add\n      mload(0x40)\n      swap1\n      dup2\n      add\n      0x40\n      mstore\n      dup1\n      swap3\n      swap2\n      swap1\n      dup2\n      dup2\n      mstore\n      0x20\n      add\n      dup3\n      dup1\n      sload\n      tag_106\n      swap1\n      tag_57\n      jump\t// in\n    tag_106:\n      dup1\n      iszero\n      tag_107\n      jumpi\n      dup1\n      0x1f\n      lt\n      tag_108\n      jumpi\n      0x0100\n      dup1\n      dup4\n      sload\n      div\n      mul\n      dup4\n      mstore\n      swap2\n      0x20\n      add\n      swap2\n      jump(tag_107)\n    tag_108:\n      dup3\n      add\n      swap2\n      swap1\n      0x00\n      mstore\n      keccak256(0x00, 0x20)\n      swap1\n    tag_109:\n      dup2\n      sload\n      dup2\n      mstore\n      swap1\n      0x01\n      add\n      swap1\n      0x20\n      add\n      dup1\n      dup4\n      gt\n      tag_109\n      jumpi\n      dup3\n      swap1\n      sub\n      0x1f\n      and\n      dup3\n      add\n      swap2\n    tag_107:\n      pop\n      pop\n      pop\n      pop\n      pop\n      dup2\n      mstore\n      0x20\n      add\n      0x03\n      dup3\n      add\n      dup1\n      sload\n      tag_110\n      swap1\n      tag_57\n      jump\t// in\n    tag_110:\n      dup1\n      0x1f\n      add\n      0x20\n      dup1\n      swap2\n      div\n      mul\n      0x20\n      add\n      mload(0x40)\n      swap1\n      dup2\n      add\n      0x40\n      mstore\n      dup1\n      swap3\n      swap2\n      swap1\n      dup2\n      dup2\n      mstore\n      0x20\n      add\n      dup3\n      dup1\n      sload\n      tag_111\n      swap1\n      tag_57\n      jump\t// in\n    tag_111:\n      dup1\n      iszero\n      tag_112\n      jumpi\n      dup1\n      0x1f\n      lt\n      tag_113\n      jumpi\n      0x0100\n      dup1\n      dup4\n      sload\n      div\n      mul\n      dup4\n      mstore\n      swap2\n      0x20\n      add\n      swap2\n      jump(tag_112)\n    tag_113:\n      dup3\n      add\n      swap2\n      swap1\n      0x00\n      mstore\n      keccak256(0x00, 0x20)\n      swap1\n    tag_114:\n      dup2\n      sload\n      dup2\n      mstore\n      swap1\n      0x01\n      add\n      swap1\n      0x20\n      add\n      dup1\n      dup4\n      gt\n      tag_114\n      jumpi\n      dup3\n      swap1\n      sub\n      0x1f\n      and\n      dup3\n      add\n      swap2\n    tag_112:\n      pop\n      pop\n      pop\n      pop\n      pop\n      dup2\n      mstore\n      0x20\n      add\n      0x04\n      dup3\n      add\n      sload\n      dup2\n      mstore\n      0x20\n      add\n      0x05\n      dup3\n      add\n      sload\n      dup2\n      mstore\n      0x20\n      add\n      0x06\n      dup3\n      add\n      0x00\n      swap1\n      sload\n      swap1\n      0x0100\n      exp\n      swap1\n      div\n      0xff\n      and\n      iszero\n      iszero\n      iszero\n      iszero\n      dup2\n      mstore\n      0x20\n      add\n      0x06\n      dup3\n      add\n      0x01\n      swap1\n      sload\n      swap1\n      0x0100\n      exp\n      swap1\n      div\n      0xffffffffffffffffffffffffffffffffffffffff\n      and\n      0xffffffffffffffffffffffffffffffffffffffff\n      and\n      0xffffffffffffffffffffffffffffffffffffffff\n      and\n      dup2\n      mstore\n      pop\n      pop\n        /* \"Article.sol\":1750:1759  temporary */\n      dup4\n        /* \"Article.sol\":1760:1767  counter */\n      dup4\n        /* \"Article.sol\":1750:1768  temporary[counter] */\n      dup2\n      mload\n      dup2\n      lt\n      tag_115\n      jumpi\n      tag_116\n      tag_29\n      jump\t// in\n    tag_116:\n    tag_115:\n      0x20\n      mul\n      0x20\n      add\n      add\n        /* \"Article.sol\":1750:1780  temporary[counter]=articles[i] */\n      dup2\n      swap1\n      mstore\n      pop\n        /* \"Article.sol\":1798:1807  counter++ */\n      dup2\n      dup1\n      tag_117\n      swap1\n      tag_70\n      jump\t// in\n    tag_117:\n      swap3\n      pop\n      pop\n        /* \"Article.sol\":1697:1822  if(articleToUser[i] == msg.sender ){... */\n    tag_101:\n        /* \"Article.sol\":1679:1682  i++ */\n      dup1\n      dup1\n      tag_118\n      swap1\n      tag_70\n      jump\t// in\n    tag_118:\n      swap2\n      pop\n      pop\n        /* \"Article.sol\":1646:1832  for(uint i=0; i<articles.length; i++){... */\n      jump(tag_98)\n    tag_99:\n      pop\n        /* \"Article.sol\":1842:1866  Article [] memory result */\n      0x00\n        /* \"Article.sol\":1883:1890  counter */\n      dup2\n        /* \"Article.sol\":1869:1891  new Article[](counter) */\n      0xffffffffffffffff\n      dup2\n      gt\n      iszero\n      tag_119\n      jumpi\n      tag_120\n      tag_41\n      jump\t// in\n    tag_120:\n    tag_119:\n      mload(0x40)\n      swap1\n      dup1\n      dup3\n      mstore\n      dup1\n      0x20\n      mul\n      0x20\n      add\n      dup3\n      add\n      0x40\n      mstore\n      dup1\n      iszero\n      tag_121\n      jumpi\n      dup2\n      0x20\n      add\n    tag_122:\n      tag_123\n      tag_45\n      jump\t// in\n    tag_123:\n      dup2\n      mstore\n      0x20\n      add\n      swap1\n      0x01\n      swap1\n      sub\n      swap1\n      dup2\n      tag_122\n      jumpi\n      swap1\n      pop\n    tag_121:\n      pop\n        /* \"Article.sol\":1842:1891  Article [] memory result = new Article[](counter) */\n      swap1\n      pop\n        /* \"Article.sol\":1905:1911  uint i */\n      0x00\n        /* \"Article.sol\":1901:1977  for(uint i=0; i<counter; i++){... */\n    tag_124:\n        /* \"Article.sol\":1917:1924  counter */\n      dup3\n        /* \"Article.sol\":1915:1916  i */\n      dup2\n        /* \"Article.sol\":1915:1924  i<counter */\n      lt\n        /* \"Article.sol\":1901:1977  for(uint i=0; i<counter; i++){... */\n      iszero\n      tag_125\n      jumpi\n        /* \"Article.sol\":1954:1963  temporary */\n      dup4\n        /* \"Article.sol\":1964:1965  i */\n      dup2\n        /* \"Article.sol\":1954:1966  temporary[i] */\n      dup2\n      mload\n      dup2\n      lt\n      tag_127\n      jumpi\n      tag_128\n      tag_29\n      jump\t// in\n    tag_128:\n    tag_127:\n      0x20\n      mul\n      0x20\n      add\n      add\n      mload\n        /* \"Article.sol\":1944:1950  result */\n      dup3\n        /* \"Article.sol\":1951:1952  i */\n      dup3\n        /* \"Article.sol\":1944:1953  result[i] */\n      dup2\n      mload\n      dup2\n      lt\n      tag_129\n      jumpi\n      tag_130\n      tag_29\n      jump\t// in\n    tag_130:\n    tag_129:\n      0x20\n      mul\n      0x20\n      add\n      add\n        /* \"Article.sol\":1944:1966  result[i]=temporary[i] */\n      dup2\n      swap1\n      mstore\n      pop\n        /* \"Article.sol\":1926:1929  i++ */\n      dup1\n      dup1\n      tag_131\n      swap1\n      tag_70\n      jump\t// in\n    tag_131:\n      swap2\n      pop\n      pop\n        /* \"Article.sol\":1901:1977  for(uint i=0; i<counter; i++){... */\n      jump(tag_124)\n    tag_125:\n      pop\n        /* \"Article.sol\":1994:2000  result */\n      dup1\n        /* \"Article.sol\":1987:2000  return result */\n      swap4\n      pop\n      pop\n      pop\n      pop\n        /* \"Article.sol\":1474:2007  function getMyArticles() external view returns ( Article[] memory ){... */\n      swap1\n      jump\t// out\n        /* \"Article.sol\":2013:2186  function upVote(uint articleId)  external{... */\n    tag_25:\n        /* \"Article.sol\":2064:2074  uint votes */\n      0x00\n        /* \"Article.sol\":2075:2083  articles */\n      dup1\n        /* \"Article.sol\":2084:2093  articleId */\n      dup3\n        /* \"Article.sol\":2075:2094  articles[articleId] */\n      dup2\n      sload\n      dup2\n      lt\n      tag_133\n      jumpi\n      tag_134\n      tag_29\n      jump\t// in\n    tag_134:\n    tag_133:\n      swap1\n      0x00\n      mstore\n      keccak256(0x00, 0x20)\n      swap1\n      0x07\n      mul\n      add\n        /* \"Article.sol\":2075:2102  articles[articleId].upvotes */\n      0x04\n      add\n      sload\n        /* \"Article.sol\":2064:2102  uint votes=articles[articleId].upvotes */\n      swap1\n      pop\n        /* \"Article.sol\":2146:2147  1 */\n      0x01\n        /* \"Article.sol\":2140:2145  votes */\n      dup2\n        /* \"Article.sol\":2140:2147  votes+1 */\n      tag_136\n      swap2\n      swap1\n      tag_137\n      jump\t// in\n    tag_136:\n        /* \"Article.sol\":2112:2120  articles */\n      0x00\n        /* \"Article.sol\":2121:2130  articleId */\n      dup4\n        /* \"Article.sol\":2112:2131  articles[articleId] */\n      dup2\n      sload\n      dup2\n      lt\n      tag_138\n      jumpi\n      tag_139\n      tag_29\n      jump\t// in\n    tag_139:\n    tag_138:\n      swap1\n      0x00\n      mstore\n      keccak256(0x00, 0x20)\n      swap1\n      0x07\n      mul\n      add\n        /* \"Article.sol\":2112:2139  articles[articleId].upvotes */\n      0x04\n      add\n        /* \"Article.sol\":2112:2147  articles[articleId].upvotes=votes+1 */\n      dup2\n      swap1\n      sstore\n      pop\n        /* \"Article.sol\":2162:2179  UpVote(articleId) */\n      0xc59201f408fbae001b55ad98f7034e9ad7216c634d38c03c3a6bf75e2aeb3656\n        /* \"Article.sol\":2169:2178  articleId */\n      dup3\n        /* \"Article.sol\":2162:2179  UpVote(articleId) */\n      mload(0x40)\n      tag_141\n      swap2\n      swap1\n      tag_37\n      jump\t// in\n    tag_141:\n      mload(0x40)\n      dup1\n      swap2\n      sub\n      swap1\n      log1\n        /* \"Article.sol\":2054:2186  {... */\n      pop\n        /* \"Article.sol\":2013:2186  function upVote(uint articleId)  external{... */\n      pop\n      jump\t// out\n    tag_45:\n      mload(0x40)\n      dup1\n      0x0100\n      add\n      0x40\n      mstore\n      dup1\n      0x00\n      dup2\n      mstore\n      0x20\n      add\n      and(0xffffffffffffffffffffffffffffffffffffffff, 0x00)\n      dup2\n      mstore\n      0x20\n      add\n      0x60\n      dup2\n      mstore\n      0x20\n      add\n      0x60\n      dup2\n      mstore\n      0x20\n      add\n      0x00\n      dup2\n      mstore\n      0x20\n      add\n      0x00\n      dup2\n      mstore\n      0x20\n      add\n      iszero(iszero(0x00))\n      dup2\n      mstore\n      0x20\n      add\n      and(0xffffffffffffffffffffffffffffffffffffffff, 0x00)\n      dup2\n      mstore\n      pop\n      swap1\n      jump\t// out\n        /* \"#utility.yul\":7:82   */\n    tag_142:\n        /* \"#utility.yul\":40:46   */\n      0x00\n        /* \"#utility.yul\":73:75   */\n      0x40\n        /* \"#utility.yul\":67:76   */\n      mload\n        /* \"#utility.yul\":57:76   */\n      swap1\n      pop\n        /* \"#utility.yul\":7:82   */\n      swap1\n      jump\t// out\n        /* \"#utility.yul\":88:205   */\n    tag_143:\n        /* \"#utility.yul\":197:198   */\n      0x00\n        /* \"#utility.yul\":194:195   */\n      dup1\n        /* \"#utility.yul\":187:199   */\n      revert\n        /* \"#utility.yul\":211:328   */\n    tag_144:\n        /* \"#utility.yul\":320:321   */\n      0x00\n        /* \"#utility.yul\":317:318   */\n      dup1\n        /* \"#utility.yul\":310:322   */\n      revert\n        /* \"#utility.yul\":334:411   */\n    tag_145:\n        /* \"#utility.yul\":371:378   */\n      0x00\n        /* \"#utility.yul\":400:405   */\n      dup2\n        /* \"#utility.yul\":389:405   */\n      swap1\n      pop\n        /* \"#utility.yul\":334:411   */\n      swap2\n      swap1\n      pop\n      jump\t// out\n        /* \"#utility.yul\":417:539   */\n    tag_146:\n        /* \"#utility.yul\":490:514   */\n      tag_199\n        /* \"#utility.yul\":508:513   */\n      dup2\n        /* \"#utility.yul\":490:514   */\n      tag_145\n      jump\t// in\n    tag_199:\n        /* \"#utility.yul\":483:488   */\n      dup2\n        /* \"#utility.yul\":480:515   */\n      eq\n        /* \"#utility.yul\":470:533   */\n      tag_200\n      jumpi\n        /* \"#utility.yul\":529:530   */\n      0x00\n        /* \"#utility.yul\":526:527   */\n      dup1\n        /* \"#utility.yul\":519:531   */\n      revert\n        /* \"#utility.yul\":470:533   */\n    tag_200:\n        /* \"#utility.yul\":417:539   */\n      pop\n      jump\t// out\n        /* \"#utility.yul\":545:684   */\n    tag_147:\n        /* \"#utility.yul\":591:596   */\n      0x00\n        /* \"#utility.yul\":629:635   */\n      dup2\n        /* \"#utility.yul\":616:636   */\n      calldataload\n        /* \"#utility.yul\":607:636   */\n      swap1\n      pop\n        /* \"#utility.yul\":645:678   */\n      tag_202\n        /* \"#utility.yul\":672:677   */\n      dup2\n        /* \"#utility.yul\":645:678   */\n      tag_146\n      jump\t// in\n    tag_202:\n        /* \"#utility.yul\":545:684   */\n      swap3\n      swap2\n      pop\n      pop\n      jump\t// out\n        /* \"#utility.yul\":690:1019   */\n    tag_10:\n        /* \"#utility.yul\":749:755   */\n      0x00\n        /* \"#utility.yul\":798:800   */\n      0x20\n        /* \"#utility.yul\":786:795   */\n      dup3\n        /* \"#utility.yul\":777:784   */\n      dup5\n        /* \"#utility.yul\":773:796   */\n      sub\n        /* \"#utility.yul\":769:801   */\n      slt\n        /* \"#utility.yul\":766:885   */\n      iszero\n      tag_204\n      jumpi\n        /* \"#utility.yul\":804:883   */\n      tag_205\n      tag_143\n      jump\t// in\n    tag_205:\n        /* \"#utility.yul\":766:885   */\n    tag_204:\n        /* \"#utility.yul\":924:925   */\n      0x00\n        /* \"#utility.yul\":949:1002   */\n      tag_206\n        /* \"#utility.yul\":994:1001   */\n      dup5\n        /* \"#utility.yul\":985:991   */\n      dup3\n        /* \"#utility.yul\":974:983   */\n      dup6\n        /* \"#utility.yul\":970:992   */\n      add\n        /* \"#utility.yul\":949:1002   */\n      tag_147\n      jump\t// in\n    tag_206:\n        /* \"#utility.yul\":939:1002   */\n      swap2\n      pop\n        /* \"#utility.yul\":895:1012   */\n      pop\n        /* \"#utility.yul\":690:1019   */\n      swap3\n      swap2\n      pop\n      pop\n      jump\t// out\n        /* \"#utility.yul\":1025:1162   */\n    tag_148:\n        /* \"#utility.yul\":1115:1121   */\n      0x00\n        /* \"#utility.yul\":1149:1154   */\n      dup2\n        /* \"#utility.yul\":1143:1155   */\n      mload\n        /* \"#utility.yul\":1133:1155   */\n      swap1\n      pop\n        /* \"#utility.yul\":1025:1162   */\n      swap2\n      swap1\n      pop\n      jump\t// out\n        /* \"#utility.yul\":1168:1375   */\n    tag_149:\n        /* \"#utility.yul\":1290:1301   */\n      0x00\n        /* \"#utility.yul\":1324:1330   */\n      dup3\n        /* \"#utility.yul\":1319:1322   */\n      dup3\n        /* \"#utility.yul\":1312:1331   */\n      mstore\n        /* \"#utility.yul\":1364:1368   */\n      0x20\n        /* \"#utility.yul\":1359:1362   */\n      dup3\n        /* \"#utility.yul\":1355:1369   */\n      add\n        /* \"#utility.yul\":1340:1369   */\n      swap1\n      pop\n        /* \"#utility.yul\":1168:1375   */\n      swap3\n      swap2\n      pop\n      pop\n      jump\t// out\n        /* \"#utility.yul\":1381:1536   */\n    tag_150:\n        /* \"#utility.yul\":1471:1475   */\n      0x00\n        /* \"#utility.yul\":1494:1497   */\n      dup2\n        /* \"#utility.yul\":1486:1497   */\n      swap1\n      pop\n        /* \"#utility.yul\":1524:1528   */\n      0x20\n        /* \"#utility.yul\":1519:1522   */\n      dup3\n        /* \"#utility.yul\":1515:1529   */\n      add\n        /* \"#utility.yul\":1507:1529   */\n      swap1\n      pop\n        /* \"#utility.yul\":1381:1536   */\n      swap2\n      swap1\n      pop\n      jump\t// out\n        /* \"#utility.yul\":1542:1650   */\n    tag_151:\n        /* \"#utility.yul\":1619:1643   */\n      tag_211\n        /* \"#utility.yul\":1637:1642   */\n      dup2\n        /* \"#utility.yul\":1619:1643   */\n      tag_145\n      jump\t// in\n    tag_211:\n        /* \"#utility.yul\":1614:1617   */\n      dup3\n        /* \"#utility.yul\":1607:1644   */\n      mstore\n        /* \"#utility.yul\":1542:1650   */\n      pop\n      pop\n      jump\t// out\n        /* \"#utility.yul\":1656:1782   */\n    tag_152:\n        /* \"#utility.yul\":1693:1700   */\n      0x00\n        /* \"#utility.yul\":1733:1775   */\n      0xffffffffffffffffffffffffffffffffffffffff\n        /* \"#utility.yul\":1726:1731   */\n      dup3\n        /* \"#utility.yul\":1722:1776   */\n      and\n        /* \"#utility.yul\":1711:1776   */\n      swap1\n      pop\n        /* \"#utility.yul\":1656:1782   */\n      swap2\n      swap1\n      pop\n      jump\t// out\n        /* \"#utility.yul\":1788:1884   */\n    tag_153:\n        /* \"#utility.yul\":1825:1832   */\n      0x00\n        /* \"#utility.yul\":1854:1878   */\n      tag_214\n        /* \"#utility.yul\":1872:1877   */\n      dup3\n        /* \"#utility.yul\":1854:1878   */\n      tag_152\n      jump\t// in\n    tag_214:\n        /* \"#utility.yul\":1843:1878   */\n      swap1\n      pop\n        /* \"#utility.yul\":1788:1884   */\n      swap2\n      swap1\n      pop\n      jump\t// out\n        /* \"#utility.yul\":1890:1998   */\n    tag_154:\n        /* \"#utility.yul\":1967:1991   */\n      tag_216\n        /* \"#utility.yul\":1985:1990   */\n      dup2\n        /* \"#utility.yul\":1967:1991   */\n      tag_153\n      jump\t// in\n    tag_216:\n        /* \"#utility.yul\":1962:1965   */\n      dup3\n        /* \"#utility.yul\":1955:1992   */\n      mstore\n        /* \"#utility.yul\":1890:1998   */\n      pop\n      pop\n      jump\t// out\n        /* \"#utility.yul\":2004:2103   */\n    tag_155:\n        /* \"#utility.yul\":2056:2062   */\n      0x00\n        /* \"#utility.yul\":2090:2095   */\n      dup2\n        /* \"#utility.yul\":2084:2096   */\n      mload\n        /* \"#utility.yul\":2074:2096   */\n      swap1\n      pop\n        /* \"#utility.yul\":2004:2103   */\n      swap2\n      swap1\n      pop\n      jump\t// out\n        /* \"#utility.yul\":2109:2268   */\n    tag_156:\n        /* \"#utility.yul\":2183:2194   */\n      0x00\n        /* \"#utility.yul\":2217:2223   */\n      dup3\n        /* \"#utility.yul\":2212:2215   */\n      dup3\n        /* \"#utility.yul\":2205:2224   */\n      mstore\n        /* \"#utility.yul\":2257:2261   */\n      0x20\n        /* \"#utility.yul\":2252:2255   */\n      dup3\n        /* \"#utility.yul\":2248:2262   */\n      add\n        /* \"#utility.yul\":2233:2262   */\n      swap1\n      pop\n        /* \"#utility.yul\":2109:2268   */\n      swap3\n      swap2\n      pop\n      pop\n      jump\t// out\n        /* \"#utility.yul\":2274:2520   */\n    tag_157:\n        /* \"#utility.yul\":2355:2356   */\n      0x00\n        /* \"#utility.yul\":2365:2478   */\n    tag_220:\n        /* \"#utility.yul\":2379:2385   */\n      dup4\n        /* \"#utility.yul\":2376:2377   */\n      dup2\n        /* \"#utility.yul\":2373:2386   */\n      lt\n        /* \"#utility.yul\":2365:2478   */\n      iszero\n      tag_222\n      jumpi\n        /* \"#utility.yul\":2464:2465   */\n      dup1\n        /* \"#utility.yul\":2459:2462   */\n      dup3\n        /* \"#utility.yul\":2455:2466   */\n      add\n        /* \"#utility.yul\":2449:2467   */\n      mload\n        /* \"#utility.yul\":2445:2446   */\n      dup2\n        /* \"#utility.yul\":2440:2443   */\n      dup5\n        /* \"#utility.yul\":2436:2447   */\n      add\n        /* \"#utility.yul\":2429:2468   */\n      mstore\n        /* \"#utility.yul\":2401:2403   */\n      0x20\n        /* \"#utility.yul\":2398:2399   */\n      dup2\n        /* \"#utility.yul\":2394:2404   */\n      add\n        /* \"#utility.yul\":2389:2404   */\n      swap1\n      pop\n        /* \"#utility.yul\":2365:2478   */\n      jump(tag_220)\n    tag_222:\n        /* \"#utility.yul\":2512:2513   */\n      0x00\n        /* \"#utility.yul\":2503:2509   */\n      dup5\n        /* \"#utility.yul\":2498:2501   */\n      dup5\n        /* \"#utility.yul\":2494:2510   */\n      add\n        /* \"#utility.yul\":2487:2514   */\n      mstore\n        /* \"#utility.yul\":2336:2520   */\n      pop\n        /* \"#utility.yul\":2274:2520   */\n      pop\n      pop\n      pop\n      jump\t// out\n        /* \"#utility.yul\":2526:2628   */\n    tag_158:\n        /* \"#utility.yul\":2567:2573   */\n      0x00\n        /* \"#utility.yul\":2618:2620   */\n      0x1f\n        /* \"#utility.yul\":2614:2621   */\n      not\n        /* \"#utility.yul\":2609:2611   */\n      0x1f\n        /* \"#utility.yul\":2602:2607   */\n      dup4\n        /* \"#utility.yul\":2598:2612   */\n      add\n        /* \"#utility.yul\":2594:2622   */\n      and\n        /* \"#utility.yul\":2584:2622   */\n      swap1\n      pop\n        /* \"#utility.yul\":2526:2628   */\n      swap2\n      swap1\n      pop\n      jump\t// out\n        /* \"#utility.yul\":2634:2991   */\n    tag_159:\n        /* \"#utility.yul\":2712:2715   */\n      0x00\n        /* \"#utility.yul\":2740:2779   */\n      tag_225\n        /* \"#utility.yul\":2773:2778   */\n      dup3\n        /* \"#utility.yul\":2740:2779   */\n      tag_155\n      jump\t// in\n    tag_225:\n        /* \"#utility.yul\":2795:2856   */\n      tag_226\n        /* \"#utility.yul\":2849:2855   */\n      dup2\n        /* \"#utility.yul\":2844:2847   */\n      dup6\n        /* \"#utility.yul\":2795:2856   */\n      tag_156\n      jump\t// in\n    tag_226:\n        /* \"#utility.yul\":2788:2856   */\n      swap4\n      pop\n        /* \"#utility.yul\":2865:2930   */\n      tag_227\n        /* \"#utility.yul\":2923:2929   */\n      dup2\n        /* \"#utility.yul\":2918:2921   */\n      dup6\n        /* \"#utility.yul\":2911:2915   */\n      0x20\n        /* \"#utility.yul\":2904:2909   */\n      dup7\n        /* \"#utility.yul\":2900:2916   */\n      add\n        /* \"#utility.yul\":2865:2930   */\n      tag_157\n      jump\t// in\n    tag_227:\n        /* \"#utility.yul\":2955:2984   */\n      tag_228\n        /* \"#utility.yul\":2977:2983   */\n      dup2\n        /* \"#utility.yul\":2955:2984   */\n      tag_158\n      jump\t// in\n    tag_228:\n        /* \"#utility.yul\":2950:2953   */\n      dup5\n        /* \"#utility.yul\":2946:2985   */\n      add\n        /* \"#utility.yul\":2939:2985   */\n      swap2\n      pop\n        /* \"#utility.yul\":2716:2991   */\n      pop\n        /* \"#utility.yul\":2634:2991   */\n      swap3\n      swap2\n      pop\n      pop\n      jump\t// out\n        /* \"#utility.yul\":2997:3087   */\n    tag_160:\n        /* \"#utility.yul\":3031:3038   */\n      0x00\n        /* \"#utility.yul\":3074:3079   */\n      dup2\n        /* \"#utility.yul\":3067:3080   */\n      iszero\n        /* \"#utility.yul\":3060:3081   */\n      iszero\n        /* \"#utility.yul\":3049:3081   */\n      swap1\n      pop\n        /* \"#utility.yul\":2997:3087   */\n      swap2\n      swap1\n      pop\n      jump\t// out\n        /* \"#utility.yul\":3093:3192   */\n    tag_161:\n        /* \"#utility.yul\":3164:3185   */\n      tag_231\n        /* \"#utility.yul\":3179:3184   */\n      dup2\n        /* \"#utility.yul\":3164:3185   */\n      tag_160\n      jump\t// in\n    tag_231:\n        /* \"#utility.yul\":3159:3162   */\n      dup3\n        /* \"#utility.yul\":3152:3186   */\n      mstore\n        /* \"#utility.yul\":3093:3192   */\n      pop\n      pop\n      jump\t// out\n        /* \"#utility.yul\":3270:4999   */\n    tag_162:\n        /* \"#utility.yul\":3375:3378   */\n      0x00\n        /* \"#utility.yul\":3411:3417   */\n      0x0100\n        /* \"#utility.yul\":3406:3409   */\n      dup4\n        /* \"#utility.yul\":3402:3418   */\n      add\n        /* \"#utility.yul\":3498:3502   */\n      0x00\n        /* \"#utility.yul\":3491:3496   */\n      dup4\n        /* \"#utility.yul\":3487:3503   */\n      add\n        /* \"#utility.yul\":3481:3504   */\n      mload\n        /* \"#utility.yul\":3517:3580   */\n      tag_233\n        /* \"#utility.yul\":3574:3578   */\n      0x00\n        /* \"#utility.yul\":3569:3572   */\n      dup7\n        /* \"#utility.yul\":3565:3579   */\n      add\n        /* \"#utility.yul\":3551:3563   */\n      dup3\n        /* \"#utility.yul\":3517:3580   */\n      tag_151\n      jump\t// in\n    tag_233:\n        /* \"#utility.yul\":3428:3590   */\n      pop\n        /* \"#utility.yul\":3676:3680   */\n      0x20\n        /* \"#utility.yul\":3669:3674   */\n      dup4\n        /* \"#utility.yul\":3665:3681   */\n      add\n        /* \"#utility.yul\":3659:3682   */\n      mload\n        /* \"#utility.yul\":3695:3758   */\n      tag_234\n        /* \"#utility.yul\":3752:3756   */\n      0x20\n        /* \"#utility.yul\":3747:3750   */\n      dup7\n        /* \"#utility.yul\":3743:3757   */\n      add\n        /* \"#utility.yul\":3729:3741   */\n      dup3\n        /* \"#utility.yul\":3695:3758   */\n      tag_154\n      jump\t// in\n    tag_234:\n        /* \"#utility.yul\":3600:3768   */\n      pop\n        /* \"#utility.yul\":3851:3855   */\n      0x40\n        /* \"#utility.yul\":3844:3849   */\n      dup4\n        /* \"#utility.yul\":3840:3856   */\n      add\n        /* \"#utility.yul\":3834:3857   */\n      mload\n        /* \"#utility.yul\":3904:3907   */\n      dup5\n        /* \"#utility.yul\":3898:3902   */\n      dup3\n        /* \"#utility.yul\":3894:3908   */\n      sub\n        /* \"#utility.yul\":3887:3891   */\n      0x40\n        /* \"#utility.yul\":3882:3885   */\n      dup7\n        /* \"#utility.yul\":3878:3892   */\n      add\n        /* \"#utility.yul\":3871:3909   */\n      mstore\n        /* \"#utility.yul\":3930:4003   */\n      tag_235\n        /* \"#utility.yul\":3998:4002   */\n      dup3\n        /* \"#utility.yul\":3984:3996   */\n      dup3\n        /* \"#utility.yul\":3930:4003   */\n      tag_159\n      jump\t// in\n    tag_235:\n        /* \"#utility.yul\":3922:4003   */\n      swap2\n      pop\n        /* \"#utility.yul\":3778:4014   */\n      pop\n        /* \"#utility.yul\":4099:4103   */\n      0x60\n        /* \"#utility.yul\":4092:4097   */\n      dup4\n        /* \"#utility.yul\":4088:4104   */\n      add\n        /* \"#utility.yul\":4082:4105   */\n      mload\n        /* \"#utility.yul\":4152:4155   */\n      dup5\n        /* \"#utility.yul\":4146:4150   */\n      dup3\n        /* \"#utility.yul\":4142:4156   */\n      sub\n        /* \"#utility.yul\":4135:4139   */\n      0x60\n        /* \"#utility.yul\":4130:4133   */\n      dup7\n        /* \"#utility.yul\":4126:4140   */\n      add\n        /* \"#utility.yul\":4119:4157   */\n      mstore\n        /* \"#utility.yul\":4178:4251   */\n      tag_236\n        /* \"#utility.yul\":4246:4250   */\n      dup3\n        /* \"#utility.yul\":4232:4244   */\n      dup3\n        /* \"#utility.yul\":4178:4251   */\n      tag_159\n      jump\t// in\n    tag_236:\n        /* \"#utility.yul\":4170:4251   */\n      swap2\n      pop\n        /* \"#utility.yul\":4024:4262   */\n      pop\n        /* \"#utility.yul\":4347:4351   */\n      0x80\n        /* \"#utility.yul\":4340:4345   */\n      dup4\n        /* \"#utility.yul\":4336:4352   */\n      add\n        /* \"#utility.yul\":4330:4353   */\n      mload\n        /* \"#utility.yul\":4366:4429   */\n      tag_237\n        /* \"#utility.yul\":4423:4427   */\n      0x80\n        /* \"#utility.yul\":4418:4421   */\n      dup7\n        /* \"#utility.yul\":4414:4428   */\n      add\n        /* \"#utility.yul\":4400:4412   */\n      dup3\n        /* \"#utility.yul\":4366:4429   */\n      tag_151\n      jump\t// in\n    tag_237:\n        /* \"#utility.yul\":4272:4439   */\n      pop\n        /* \"#utility.yul\":4526:4530   */\n      0xa0\n        /* \"#utility.yul\":4519:4524   */\n      dup4\n        /* \"#utility.yul\":4515:4531   */\n      add\n        /* \"#utility.yul\":4509:4532   */\n      mload\n        /* \"#utility.yul\":4545:4608   */\n      tag_238\n        /* \"#utility.yul\":4602:4606   */\n      0xa0\n        /* \"#utility.yul\":4597:4600   */\n      dup7\n        /* \"#utility.yul\":4593:4607   */\n      add\n        /* \"#utility.yul\":4579:4591   */\n      dup3\n        /* \"#utility.yul\":4545:4608   */\n      tag_151\n      jump\t// in\n    tag_238:\n        /* \"#utility.yul\":4449:4618   */\n      pop\n        /* \"#utility.yul\":4707:4711   */\n      0xc0\n        /* \"#utility.yul\":4700:4705   */\n      dup4\n        /* \"#utility.yul\":4696:4712   */\n      add\n        /* \"#utility.yul\":4690:4713   */\n      mload\n        /* \"#utility.yul\":4726:4783   */\n      tag_239\n        /* \"#utility.yul\":4777:4781   */\n      0xc0\n        /* \"#utility.yul\":4772:4775   */\n      dup7\n        /* \"#utility.yul\":4768:4782   */\n      add\n        /* \"#utility.yul\":4754:4766   */\n      dup3\n        /* \"#utility.yul\":4726:4783   */\n      tag_161\n      jump\t// in\n    tag_239:\n        /* \"#utility.yul\":4628:4793   */\n      pop\n        /* \"#utility.yul\":4880:4884   */\n      0xe0\n        /* \"#utility.yul\":4873:4878   */\n      dup4\n        /* \"#utility.yul\":4869:4885   */\n      add\n        /* \"#utility.yul\":4863:4886   */\n      mload\n        /* \"#utility.yul\":4899:4962   */\n      tag_240\n        /* \"#utility.yul\":4956:4960   */\n      0xe0\n        /* \"#utility.yul\":4951:4954   */\n      dup7\n        /* \"#utility.yul\":4947:4961   */\n      add\n        /* \"#utility.yul\":4933:4945   */\n      dup3\n        /* \"#utility.yul\":4899:4962   */\n      tag_154\n      jump\t// in\n    tag_240:\n        /* \"#utility.yul\":4803:4972   */\n      pop\n        /* \"#utility.yul\":4989:4993   */\n      dup1\n        /* \"#utility.yul\":4982:4993   */\n      swap2\n      pop\n        /* \"#utility.yul\":3380:4999   */\n      pop\n        /* \"#utility.yul\":3270:4999   */\n      swap3\n      swap2\n      pop\n      pop\n      jump\t// out\n        /* \"#utility.yul\":5005:5253   */\n    tag_163:\n        /* \"#utility.yul\":5120:5130   */\n      0x00\n        /* \"#utility.yul\":5155:5247   */\n      tag_242\n        /* \"#utility.yul\":5243:5246   */\n      dup4\n        /* \"#utility.yul\":5235:5241   */\n      dup4\n        /* \"#utility.yul\":5155:5247   */\n      tag_162\n      jump\t// in\n    tag_242:\n        /* \"#utility.yul\":5141:5247   */\n      swap1\n      pop\n        /* \"#utility.yul\":5005:5253   */\n      swap3\n      swap2\n      pop\n      pop\n      jump\t// out\n        /* \"#utility.yul\":5259:5395   */\n    tag_164:\n        /* \"#utility.yul\":5352:5356   */\n      0x00\n        /* \"#utility.yul\":5384:5388   */\n      0x20\n        /* \"#utility.yul\":5379:5382   */\n      dup3\n        /* \"#utility.yul\":5375:5389   */\n      add\n        /* \"#utility.yul\":5367:5389   */\n      swap1\n      pop\n        /* \"#utility.yul\":5259:5395   */\n      swap2\n      swap1\n      pop\n      jump\t// out\n        /* \"#utility.yul\":5477:6572   */\n    tag_165:\n        /* \"#utility.yul\":5642:5645   */\n      0x00\n        /* \"#utility.yul\":5671:5748   */\n      tag_245\n        /* \"#utility.yul\":5742:5747   */\n      dup3\n        /* \"#utility.yul\":5671:5748   */\n      tag_148\n      jump\t// in\n    tag_245:\n        /* \"#utility.yul\":5764:5873   */\n      tag_246\n        /* \"#utility.yul\":5866:5872   */\n      dup2\n        /* \"#utility.yul\":5861:5864   */\n      dup6\n        /* \"#utility.yul\":5764:5873   */\n      tag_149\n      jump\t// in\n    tag_246:\n        /* \"#utility.yul\":5757:5873   */\n      swap4\n      pop\n        /* \"#utility.yul\":5899:5902   */\n      dup4\n        /* \"#utility.yul\":5944:5948   */\n      0x20\n        /* \"#utility.yul\":5936:5942   */\n      dup3\n        /* \"#utility.yul\":5932:5949   */\n      mul\n        /* \"#utility.yul\":5927:5930   */\n      dup6\n        /* \"#utility.yul\":5923:5950   */\n      add\n        /* \"#utility.yul\":5974:6053   */\n      tag_247\n        /* \"#utility.yul\":6047:6052   */\n      dup6\n        /* \"#utility.yul\":5974:6053   */\n      tag_150\n      jump\t// in\n    tag_247:\n        /* \"#utility.yul\":6076:6083   */\n      dup1\n        /* \"#utility.yul\":6107:6108   */\n      0x00\n        /* \"#utility.yul\":6092:6527   */\n    tag_248:\n        /* \"#utility.yul\":6117:6123   */\n      dup6\n        /* \"#utility.yul\":6114:6115   */\n      dup2\n        /* \"#utility.yul\":6111:6124   */\n      lt\n        /* \"#utility.yul\":6092:6527   */\n      iszero\n      tag_250\n      jumpi\n        /* \"#utility.yul\":6188:6197   */\n      dup5\n        /* \"#utility.yul\":6182:6186   */\n      dup5\n        /* \"#utility.yul\":6178:6198   */\n      sub\n        /* \"#utility.yul\":6173:6176   */\n      dup10\n        /* \"#utility.yul\":6166:6199   */\n      mstore\n        /* \"#utility.yul\":6239:6245   */\n      dup2\n        /* \"#utility.yul\":6233:6246   */\n      mload\n        /* \"#utility.yul\":6267:6377   */\n      tag_251\n        /* \"#utility.yul\":6372:6376   */\n      dup6\n        /* \"#utility.yul\":6357:6370   */\n      dup3\n        /* \"#utility.yul\":6267:6377   */\n      tag_163\n      jump\t// in\n    tag_251:\n        /* \"#utility.yul\":6259:6377   */\n      swap5\n      pop\n        /* \"#utility.yul\":6400:6483   */\n      tag_252\n        /* \"#utility.yul\":6476:6482   */\n      dup4\n        /* \"#utility.yul\":6400:6483   */\n      tag_164\n      jump\t// in\n    tag_252:\n        /* \"#utility.yul\":6390:6483   */\n      swap3\n      pop\n        /* \"#utility.yul\":6512:6516   */\n      0x20\n        /* \"#utility.yul\":6507:6510   */\n      dup11\n        /* \"#utility.yul\":6503:6517   */\n      add\n        /* \"#utility.yul\":6496:6517   */\n      swap10\n      pop\n        /* \"#utility.yul\":6152:6527   */\n      pop\n        /* \"#utility.yul\":6139:6140   */\n      0x01\n        /* \"#utility.yul\":6136:6137   */\n      dup2\n        /* \"#utility.yul\":6132:6141   */\n      add\n        /* \"#utility.yul\":6127:6141   */\n      swap1\n      pop\n        /* \"#utility.yul\":6092:6527   */\n      jump(tag_248)\n    tag_250:\n        /* \"#utility.yul\":6096:6110   */\n      pop\n        /* \"#utility.yul\":6543:6547   */\n      dup3\n        /* \"#utility.yul\":6536:6547   */\n      swap8\n      pop\n        /* \"#utility.yul\":6563:6566   */\n      dup8\n        /* \"#utility.yul\":6556:6566   */\n      swap6\n      pop\n        /* \"#utility.yul\":5647:6572   */\n      pop\n      pop\n      pop\n      pop\n      pop\n        /* \"#utility.yul\":5477:6572   */\n      swap3\n      swap2\n      pop\n      pop\n      jump\t// out\n        /* \"#utility.yul\":6578:7043   */\n    tag_15:\n        /* \"#utility.yul\":6767:6771   */\n      0x00\n        /* \"#utility.yul\":6805:6807   */\n      0x20\n        /* \"#utility.yul\":6794:6803   */\n      dup3\n        /* \"#utility.yul\":6790:6808   */\n      add\n        /* \"#utility.yul\":6782:6808   */\n      swap1\n      pop\n        /* \"#utility.yul\":6854:6863   */\n      dup2\n        /* \"#utility.yul\":6848:6852   */\n      dup2\n        /* \"#utility.yul\":6844:6864   */\n      sub\n        /* \"#utility.yul\":6840:6841   */\n      0x00\n        /* \"#utility.yul\":6829:6838   */\n      dup4\n        /* \"#utility.yul\":6825:6842   */\n      add\n        /* \"#utility.yul\":6818:6865   */\n      mstore\n        /* \"#utility.yul\":6882:7036   */\n      tag_254\n        /* \"#utility.yul\":7031:7035   */\n      dup2\n        /* \"#utility.yul\":7022:7028   */\n      dup5\n        /* \"#utility.yul\":6882:7036   */\n      tag_165\n      jump\t// in\n    tag_254:\n        /* \"#utility.yul\":6874:7036   */\n      swap1\n      pop\n        /* \"#utility.yul\":6578:7043   */\n      swap3\n      swap2\n      pop\n      pop\n      jump\t// out\n        /* \"#utility.yul\":7049:7166   */\n    tag_166:\n        /* \"#utility.yul\":7158:7159   */\n      0x00\n        /* \"#utility.yul\":7155:7156   */\n      dup1\n        /* \"#utility.yul\":7148:7160   */\n      revert\n        /* \"#utility.yul\":7172:7289   */\n    tag_167:\n        /* \"#utility.yul\":7281:7282   */\n      0x00\n        /* \"#utility.yul\":7278:7279   */\n      dup1\n        /* \"#utility.yul\":7271:7283   */\n      revert\n        /* \"#utility.yul\":7295:7475   */\n    tag_41:\n        /* \"#utility.yul\":7343:7420   */\n      0x4e487b7100000000000000000000000000000000000000000000000000000000\n        /* \"#utility.yul\":7340:7341   */\n      0x00\n        /* \"#utility.yul\":7333:7421   */\n      mstore\n        /* \"#utility.yul\":7440:7444   */\n      0x41\n        /* \"#utility.yul\":7437:7438   */\n      0x04\n        /* \"#utility.yul\":7430:7445   */\n      mstore\n        /* \"#utility.yul\":7464:7468   */\n      0x24\n        /* \"#utility.yul\":7461:7462   */\n      0x00\n        /* \"#utility.yul\":7454:7469   */\n      revert\n        /* \"#utility.yul\":7481:7762   */\n    tag_168:\n        /* \"#utility.yul\":7564:7591   */\n      tag_259\n        /* \"#utility.yul\":7586:7590   */\n      dup3\n        /* \"#utility.yul\":7564:7591   */\n      tag_158\n      jump\t// in\n    tag_259:\n        /* \"#utility.yul\":7556:7562   */\n      dup2\n        /* \"#utility.yul\":7552:7592   */\n      add\n        /* \"#utility.yul\":7694:7700   */\n      dup2\n        /* \"#utility.yul\":7682:7692   */\n      dup2\n        /* \"#utility.yul\":7679:7701   */\n      lt\n        /* \"#utility.yul\":7658:7676   */\n      0xffffffffffffffff\n        /* \"#utility.yul\":7646:7656   */\n      dup3\n        /* \"#utility.yul\":7643:7677   */\n      gt\n        /* \"#utility.yul\":7640:7702   */\n      or\n        /* \"#utility.yul\":7637:7725   */\n      iszero\n      tag_260\n      jumpi\n        /* \"#utility.yul\":7705:7723   */\n      tag_261\n      tag_41\n      jump\t// in\n    tag_261:\n        /* \"#utility.yul\":7637:7725   */\n    tag_260:\n        /* \"#utility.yul\":7745:7755   */\n      dup1\n        /* \"#utility.yul\":7741:7743   */\n      0x40\n        /* \"#utility.yul\":7734:7756   */\n      mstore\n        /* \"#utility.yul\":7524:7762   */\n      pop\n        /* \"#utility.yul\":7481:7762   */\n      pop\n      pop\n      jump\t// out\n        /* \"#utility.yul\":7768:7897   */\n    tag_169:\n        /* \"#utility.yul\":7802:7808   */\n      0x00\n        /* \"#utility.yul\":7829:7849   */\n      tag_263\n      tag_142\n      jump\t// in\n    tag_263:\n        /* \"#utility.yul\":7819:7849   */\n      swap1\n      pop\n        /* \"#utility.yul\":7858:7891   */\n      tag_264\n        /* \"#utility.yul\":7886:7890   */\n      dup3\n        /* \"#utility.yul\":7878:7884   */\n      dup3\n        /* \"#utility.yul\":7858:7891   */\n      tag_168\n      jump\t// in\n    tag_264:\n        /* \"#utility.yul\":7768:7897   */\n      swap2\n      swap1\n      pop\n      jump\t// out\n        /* \"#utility.yul\":7903:8211   */\n    tag_170:\n        /* \"#utility.yul\":7965:7969   */\n      0x00\n        /* \"#utility.yul\":8055:8073   */\n      0xffffffffffffffff\n        /* \"#utility.yul\":8047:8053   */\n      dup3\n        /* \"#utility.yul\":8044:8074   */\n      gt\n        /* \"#utility.yul\":8041:8097   */\n      iszero\n      tag_266\n      jumpi\n        /* \"#utility.yul\":8077:8095   */\n      tag_267\n      tag_41\n      jump\t// in\n    tag_267:\n        /* \"#utility.yul\":8041:8097   */\n    tag_266:\n        /* \"#utility.yul\":8115:8144   */\n      tag_268\n        /* \"#utility.yul\":8137:8143   */\n      dup3\n        /* \"#utility.yul\":8115:8144   */\n      tag_158\n      jump\t// in\n    tag_268:\n        /* \"#utility.yul\":8107:8144   */\n      swap1\n      pop\n        /* \"#utility.yul\":8199:8203   */\n      0x20\n        /* \"#utility.yul\":8193:8197   */\n      dup2\n        /* \"#utility.yul\":8189:8204   */\n      add\n        /* \"#utility.yul\":8181:8204   */\n      swap1\n      pop\n        /* \"#utility.yul\":7903:8211   */\n      swap2\n      swap1\n      pop\n      jump\t// out\n        /* \"#utility.yul\":8217:8363   */\n    tag_171:\n        /* \"#utility.yul\":8314:8320   */\n      dup3\n        /* \"#utility.yul\":8309:8312   */\n      dup2\n        /* \"#utility.yul\":8304:8307   */\n      dup4\n        /* \"#utility.yul\":8291:8321   */\n      calldatacopy\n        /* \"#utility.yul\":8355:8356   */\n      0x00\n        /* \"#utility.yul\":8346:8352   */\n      dup4\n        /* \"#utility.yul\":8341:8344   */\n      dup4\n        /* \"#utility.yul\":8337:8353   */\n      add\n        /* \"#utility.yul\":8330:8357   */\n      mstore\n        /* \"#utility.yul\":8217:8363   */\n      pop\n      pop\n      pop\n      jump\t// out\n        /* \"#utility.yul\":8369:8794   */\n    tag_172:\n        /* \"#utility.yul\":8447:8452   */\n      0x00\n        /* \"#utility.yul\":8472:8538   */\n      tag_271\n        /* \"#utility.yul\":8488:8537   */\n      tag_272\n        /* \"#utility.yul\":8530:8536   */\n      dup5\n        /* \"#utility.yul\":8488:8537   */\n      tag_170\n      jump\t// in\n    tag_272:\n        /* \"#utility.yul\":8472:8538   */\n      tag_169\n      jump\t// in\n    tag_271:\n        /* \"#utility.yul\":8463:8538   */\n      swap1\n      pop\n        /* \"#utility.yul\":8561:8567   */\n      dup3\n        /* \"#utility.yul\":8554:8559   */\n      dup2\n        /* \"#utility.yul\":8547:8568   */\n      mstore\n        /* \"#utility.yul\":8599:8603   */\n      0x20\n        /* \"#utility.yul\":8592:8597   */\n      dup2\n        /* \"#utility.yul\":8588:8604   */\n      add\n        /* \"#utility.yul\":8637:8640   */\n      dup5\n        /* \"#utility.yul\":8628:8634   */\n      dup5\n        /* \"#utility.yul\":8623:8626   */\n      dup5\n        /* \"#utility.yul\":8619:8635   */\n      add\n        /* \"#utility.yul\":8616:8641   */\n      gt\n        /* \"#utility.yul\":8613:8725   */\n      iszero\n      tag_273\n      jumpi\n        /* \"#utility.yul\":8644:8723   */\n      tag_274\n      tag_167\n      jump\t// in\n    tag_274:\n        /* \"#utility.yul\":8613:8725   */\n    tag_273:\n        /* \"#utility.yul\":8734:8788   */\n      tag_275\n        /* \"#utility.yul\":8781:8787   */\n      dup5\n        /* \"#utility.yul\":8776:8779   */\n      dup3\n        /* \"#utility.yul\":8771:8774   */\n      dup6\n        /* \"#utility.yul\":8734:8788   */\n      tag_171\n      jump\t// in\n    tag_275:\n        /* \"#utility.yul\":8453:8794   */\n      pop\n        /* \"#utility.yul\":8369:8794   */\n      swap4\n      swap3\n      pop\n      pop\n      pop\n      jump\t// out\n        /* \"#utility.yul\":8814:9154   */\n    tag_173:\n        /* \"#utility.yul\":8870:8875   */\n      0x00\n        /* \"#utility.yul\":8919:8922   */\n      dup3\n        /* \"#utility.yul\":8912:8916   */\n      0x1f\n        /* \"#utility.yul\":8904:8910   */\n      dup4\n        /* \"#utility.yul\":8900:8917   */\n      add\n        /* \"#utility.yul\":8896:8923   */\n      slt\n        /* \"#utility.yul\":8886:9008   */\n      tag_277\n      jumpi\n        /* \"#utility.yul\":8927:9006   */\n      tag_278\n      tag_166\n      jump\t// in\n    tag_278:\n        /* \"#utility.yul\":8886:9008   */\n    tag_277:\n        /* \"#utility.yul\":9044:9050   */\n      dup2\n        /* \"#utility.yul\":9031:9051   */\n      calldataload\n        /* \"#utility.yul\":9069:9148   */\n      tag_279\n        /* \"#utility.yul\":9144:9147   */\n      dup5\n        /* \"#utility.yul\":9136:9142   */\n      dup3\n        /* \"#utility.yul\":9129:9133   */\n      0x20\n        /* \"#utility.yul\":9121:9127   */\n      dup7\n        /* \"#utility.yul\":9117:9134   */\n      add\n        /* \"#utility.yul\":9069:9148   */\n      tag_172\n      jump\t// in\n    tag_279:\n        /* \"#utility.yul\":9060:9148   */\n      swap2\n      pop\n        /* \"#utility.yul\":8876:9154   */\n      pop\n        /* \"#utility.yul\":8814:9154   */\n      swap3\n      swap2\n      pop\n      pop\n      jump\t// out\n        /* \"#utility.yul\":9160:9994   */\n    tag_18:\n        /* \"#utility.yul\":9248:9254   */\n      0x00\n        /* \"#utility.yul\":9256:9262   */\n      dup1\n        /* \"#utility.yul\":9305:9307   */\n      0x40\n        /* \"#utility.yul\":9293:9302   */\n      dup4\n        /* \"#utility.yul\":9284:9291   */\n      dup6\n        /* \"#utility.yul\":9280:9303   */\n      sub\n        /* \"#utility.yul\":9276:9308   */\n      slt\n        /* \"#utility.yul\":9273:9392   */\n      iszero\n      tag_281\n      jumpi\n        /* \"#utility.yul\":9311:9390   */\n      tag_282\n      tag_143\n      jump\t// in\n    tag_282:\n        /* \"#utility.yul\":9273:9392   */\n    tag_281:\n        /* \"#utility.yul\":9459:9460   */\n      0x00\n        /* \"#utility.yul\":9448:9457   */\n      dup4\n        /* \"#utility.yul\":9444:9461   */\n      add\n        /* \"#utility.yul\":9431:9462   */\n      calldataload\n        /* \"#utility.yul\":9489:9507   */\n      0xffffffffffffffff\n        /* \"#utility.yul\":9481:9487   */\n      dup2\n        /* \"#utility.yul\":9478:9508   */\n      gt\n        /* \"#utility.yul\":9475:9592   */\n      iszero\n      tag_283\n      jumpi\n        /* \"#utility.yul\":9511:9590   */\n      tag_284\n      tag_144\n      jump\t// in\n    tag_284:\n        /* \"#utility.yul\":9475:9592   */\n    tag_283:\n        /* \"#utility.yul\":9616:9679   */\n      tag_285\n        /* \"#utility.yul\":9671:9678   */\n      dup6\n        /* \"#utility.yul\":9662:9668   */\n      dup3\n        /* \"#utility.yul\":9651:9660   */\n      dup7\n        /* \"#utility.yul\":9647:9669   */\n      add\n        /* \"#utility.yul\":9616:9679   */\n      tag_173\n      jump\t// in\n    tag_285:\n        /* \"#utility.yul\":9606:9679   */\n      swap3\n      pop\n        /* \"#utility.yul\":9402:9689   */\n      pop\n        /* \"#utility.yul\":9756:9758   */\n      0x20\n        /* \"#utility.yul\":9745:9754   */\n      dup4\n        /* \"#utility.yul\":9741:9759   */\n      add\n        /* \"#utility.yul\":9728:9760   */\n      calldataload\n        /* \"#utility.yul\":9787:9805   */\n      0xffffffffffffffff\n        /* \"#utility.yul\":9779:9785   */\n      dup2\n        /* \"#utility.yul\":9776:9806   */\n      gt\n        /* \"#utility.yul\":9773:9890   */\n      iszero\n      tag_286\n      jumpi\n        /* \"#utility.yul\":9809:9888   */\n      tag_287\n      tag_144\n      jump\t// in\n    tag_287:\n        /* \"#utility.yul\":9773:9890   */\n    tag_286:\n        /* \"#utility.yul\":9914:9977   */\n      tag_288\n        /* \"#utility.yul\":9969:9976   */\n      dup6\n        /* \"#utility.yul\":9960:9966   */\n      dup3\n        /* \"#utility.yul\":9949:9958   */\n      dup7\n        /* \"#utility.yul\":9945:9967   */\n      add\n        /* \"#utility.yul\":9914:9977   */\n      tag_173\n      jump\t// in\n    tag_288:\n        /* \"#utility.yul\":9904:9977   */\n      swap2\n      pop\n        /* \"#utility.yul\":9699:9987   */\n      pop\n        /* \"#utility.yul\":9160:9994   */\n      swap3\n      pop\n      swap3\n      swap1\n      pop\n      jump\t// out\n        /* \"#utility.yul\":10000:10180   */\n    tag_29:\n        /* \"#utility.yul\":10048:10125   */\n      0x4e487b7100000000000000000000000000000000000000000000000000000000\n        /* \"#utility.yul\":10045:10046   */\n      0x00\n        /* \"#utility.yul\":10038:10126   */\n      mstore\n        /* \"#utility.yul\":10145:10149   */\n      0x32\n        /* \"#utility.yul\":10142:10143   */\n      0x04\n        /* \"#utility.yul\":10135:10150   */\n      mstore\n        /* \"#utility.yul\":10169:10173   */\n      0x24\n        /* \"#utility.yul\":10166:10167   */\n      0x00\n        /* \"#utility.yul\":10159:10174   */\n      revert\n        /* \"#utility.yul\":10186:10366   */\n    tag_174:\n        /* \"#utility.yul\":10234:10311   */\n      0x4e487b7100000000000000000000000000000000000000000000000000000000\n        /* \"#utility.yul\":10231:10232   */\n      0x00\n        /* \"#utility.yul\":10224:10312   */\n      mstore\n        /* \"#utility.yul\":10331:10335   */\n      0x11\n        /* \"#utility.yul\":10328:10329   */\n      0x04\n        /* \"#utility.yul\":10321:10336   */\n      mstore\n        /* \"#utility.yul\":10355:10359   */\n      0x24\n        /* \"#utility.yul\":10352:10353   */\n      0x00\n        /* \"#utility.yul\":10345:10360   */\n      revert\n        /* \"#utility.yul\":10372:10566   */\n    tag_32:\n        /* \"#utility.yul\":10412:10416   */\n      0x00\n        /* \"#utility.yul\":10432:10452   */\n      tag_292\n        /* \"#utility.yul\":10450:10451   */\n      dup3\n        /* \"#utility.yul\":10432:10452   */\n      tag_145\n      jump\t// in\n    tag_292:\n        /* \"#utility.yul\":10427:10452   */\n      swap2\n      pop\n        /* \"#utility.yul\":10466:10486   */\n      tag_293\n        /* \"#utility.yul\":10484:10485   */\n      dup4\n        /* \"#utility.yul\":10466:10486   */\n      tag_145\n      jump\t// in\n    tag_293:\n        /* \"#utility.yul\":10461:10486   */\n      swap3\n      pop\n        /* \"#utility.yul\":10510:10511   */\n      dup3\n        /* \"#utility.yul\":10507:10508   */\n      dup3\n        /* \"#utility.yul\":10503:10512   */\n      sub\n        /* \"#utility.yul\":10495:10512   */\n      swap1\n      pop\n        /* \"#utility.yul\":10534:10535   */\n      dup2\n        /* \"#utility.yul\":10528:10532   */\n      dup2\n        /* \"#utility.yul\":10525:10536   */\n      gt\n        /* \"#utility.yul\":10522:10559   */\n      iszero\n      tag_294\n      jumpi\n        /* \"#utility.yul\":10539:10557   */\n      tag_295\n      tag_174\n      jump\t// in\n    tag_295:\n        /* \"#utility.yul\":10522:10559   */\n    tag_294:\n        /* \"#utility.yul\":10372:10566   */\n      swap3\n      swap2\n      pop\n      pop\n      jump\t// out\n        /* \"#utility.yul\":10572:10690   */\n    tag_175:\n        /* \"#utility.yul\":10659:10683   */\n      tag_297\n        /* \"#utility.yul\":10677:10682   */\n      dup2\n        /* \"#utility.yul\":10659:10683   */\n      tag_145\n      jump\t// in\n    tag_297:\n        /* \"#utility.yul\":10654:10657   */\n      dup3\n        /* \"#utility.yul\":10647:10684   */\n      mstore\n        /* \"#utility.yul\":10572:10690   */\n      pop\n      pop\n      jump\t// out\n        /* \"#utility.yul\":10696:10918   */\n    tag_37:\n        /* \"#utility.yul\":10789:10793   */\n      0x00\n        /* \"#utility.yul\":10827:10829   */\n      0x20\n        /* \"#utility.yul\":10816:10825   */\n      dup3\n        /* \"#utility.yul\":10812:10830   */\n      add\n        /* \"#utility.yul\":10804:10830   */\n      swap1\n      pop\n        /* \"#utility.yul\":10840:10911   */\n      tag_299\n        /* \"#utility.yul\":10908:10909   */\n      0x00\n        /* \"#utility.yul\":10897:10906   */\n      dup4\n        /* \"#utility.yul\":10893:10910   */\n      add\n        /* \"#utility.yul\":10884:10890   */\n      dup5\n        /* \"#utility.yul\":10840:10911   */\n      tag_175\n      jump\t// in\n    tag_299:\n        /* \"#utility.yul\":10696:10918   */\n      swap3\n      swap2\n      pop\n      pop\n      jump\t// out\n        /* \"#utility.yul\":10924:11104   */\n    tag_176:\n        /* \"#utility.yul\":10972:11049   */\n      0x4e487b7100000000000000000000000000000000000000000000000000000000\n        /* \"#utility.yul\":10969:10970   */\n      0x00\n        /* \"#utility.yul\":10962:11050   */\n      mstore\n        /* \"#utility.yul\":11069:11073   */\n      0x22\n        /* \"#utility.yul\":11066:11067   */\n      0x04\n        /* \"#utility.yul\":11059:11074   */\n      mstore\n        /* \"#utility.yul\":11093:11097   */\n      0x24\n        /* \"#utility.yul\":11090:11091   */\n      0x00\n        /* \"#utility.yul\":11083:11098   */\n      revert\n        /* \"#utility.yul\":11110:11430   */\n    tag_57:\n        /* \"#utility.yul\":11154:11160   */\n      0x00\n        /* \"#utility.yul\":11191:11192   */\n      0x02\n        /* \"#utility.yul\":11185:11189   */\n      dup3\n        /* \"#utility.yul\":11181:11193   */\n      div\n        /* \"#utility.yul\":11171:11193   */\n      swap1\n      pop\n        /* \"#utility.yul\":11238:11239   */\n      0x01\n        /* \"#utility.yul\":11232:11236   */\n      dup3\n        /* \"#utility.yul\":11228:11240   */\n      and\n        /* \"#utility.yul\":11259:11277   */\n      dup1\n        /* \"#utility.yul\":11249:11330   */\n      tag_302\n      jumpi\n        /* \"#utility.yul\":11315:11319   */\n      0x7f\n        /* \"#utility.yul\":11307:11313   */\n      dup3\n        /* \"#utility.yul\":11303:11320   */\n      and\n        /* \"#utility.yul\":11293:11320   */\n      swap2\n      pop\n        /* \"#utility.yul\":11249:11330   */\n    tag_302:\n        /* \"#utility.yul\":11377:11379   */\n      0x20\n        /* \"#utility.yul\":11369:11375   */\n      dup3\n        /* \"#utility.yul\":11366:11380   */\n      lt\n        /* \"#utility.yul\":11346:11364   */\n      dup2\n        /* \"#utility.yul\":11343:11381   */\n      sub\n        /* \"#utility.yul\":11340:11424   */\n      tag_303\n      jumpi\n        /* \"#utility.yul\":11396:11414   */\n      tag_304\n      tag_176\n      jump\t// in\n    tag_304:\n        /* \"#utility.yul\":11340:11424   */\n    tag_303:\n        /* \"#utility.yul\":11161:11430   */\n      pop\n        /* \"#utility.yul\":11110:11430   */\n      swap2\n      swap1\n      pop\n      jump\t// out\n        /* \"#utility.yul\":11436:11669   */\n    tag_70:\n        /* \"#utility.yul\":11475:11478   */\n      0x00\n        /* \"#utility.yul\":11498:11522   */\n      tag_306\n        /* \"#utility.yul\":11516:11521   */\n      dup3\n        /* \"#utility.yul\":11498:11522   */\n      tag_145\n      jump\t// in\n    tag_306:\n        /* \"#utility.yul\":11489:11522   */\n      swap2\n      pop\n        /* \"#utility.yul\":11544:11610   */\n      0xffffffffffffffffffffffffffffffffffffffffffffffffffffffffffffffff\n        /* \"#utility.yul\":11537:11542   */\n      dup3\n        /* \"#utility.yul\":11534:11611   */\n      sub\n        /* \"#utility.yul\":11531:11634   */\n      tag_307\n      jumpi\n        /* \"#utility.yul\":11614:11632   */\n      tag_308\n      tag_174\n      jump\t// in\n    tag_308:\n        /* \"#utility.yul\":11531:11634   */\n    tag_307:\n        /* \"#utility.yul\":11661:11662   */\n      0x01\n        /* \"#utility.yul\":11654:11659   */\n      dup3\n        /* \"#utility.yul\":11650:11663   */\n      add\n        /* \"#utility.yul\":11643:11663   */\n      swap1\n      pop\n        /* \"#utility.yul\":11436:11669   */\n      swap2\n      swap1\n      pop\n      jump\t// out\n        /* \"#utility.yul\":11675:11816   */\n    tag_177:\n        /* \"#utility.yul\":11724:11728   */\n      0x00\n        /* \"#utility.yul\":11747:11750   */\n      dup2\n        /* \"#utility.yul\":11739:11750   */\n      swap1\n      pop\n        /* \"#utility.yul\":11770:11773   */\n      dup2\n        /* \"#utility.yul\":11767:11768   */\n      0x00\n        /* \"#utility.yul\":11760:11774   */\n      mstore\n        /* \"#utility.yul\":11804:11808   */\n      0x20\n        /* \"#utility.yul\":11801:11802   */\n      0x00\n        /* \"#utility.yul\":11791:11809   */\n      keccak256\n        /* \"#utility.yul\":11783:11809   */\n      swap1\n      pop\n        /* \"#utility.yul\":11675:11816   */\n      swap2\n      swap1\n      pop\n      jump\t// out\n        /* \"#utility.yul\":11822:11915   */\n    tag_178:\n        /* \"#utility.yul\":11859:11865   */\n      0x00\n        /* \"#utility.yul\":11906:11908   */\n      0x20\n        /* \"#utility.yul\":11901:11903   */\n      0x1f\n        /* \"#utility.yul\":11894:11899   */\n      dup4\n        /* \"#utility.yul\":11890:11904   */\n      add\n        /* \"#utility.yul\":11886:11909   */\n      div\n        /* \"#utility.yul\":11876:11909   */\n      swap1\n      pop\n        /* \"#utility.yul\":11822:11915   */\n      swap2\n      swap1\n      pop\n      jump\t// out\n        /* \"#utility.yul\":11921:12028   */\n    tag_179:\n        /* \"#utility.yul\":11965:11973   */\n      0x00\n        /* \"#utility.yul\":12015:12020   */\n      dup3\n        /* \"#utility.yul\":12009:12013   */\n      dup3\n        /* \"#utility.yul\":12005:12021   */\n      shl\n        /* \"#utility.yul\":11984:12021   */\n      swap1\n      pop\n        /* \"#utility.yul\":11921:12028   */\n      swap3\n      swap2\n      pop\n      pop\n      jump\t// out\n        /* \"#utility.yul\":12034:12427   */\n    tag_180:\n        /* \"#utility.yul\":12103:12109   */\n      0x00\n        /* \"#utility.yul\":12153:12154   */\n      0x08\n        /* \"#utility.yul\":12141:12151   */\n      dup4\n        /* \"#utility.yul\":12137:12155   */\n      mul\n        /* \"#utility.yul\":12176:12273   */\n      tag_313\n        /* \"#utility.yul\":12206:12272   */\n      0xffffffffffffffffffffffffffffffffffffffffffffffffffffffffffffffff\n        /* \"#utility.yul\":12195:12204   */\n      dup3\n        /* \"#utility.yul\":12176:12273   */\n      tag_179\n      jump\t// in\n    tag_313:\n        /* \"#utility.yul\":12294:12333   */\n      tag_314\n        /* \"#utility.yul\":12324:12332   */\n      dup7\n        /* \"#utility.yul\":12313:12322   */\n      dup4\n        /* \"#utility.yul\":12294:12333   */\n      tag_179\n      jump\t// in\n    tag_314:\n        /* \"#utility.yul\":12282:12333   */\n      swap6\n      pop\n        /* \"#utility.yul\":12366:12370   */\n      dup1\n        /* \"#utility.yul\":12362:12371   */\n      not\n        /* \"#utility.yul\":12355:12360   */\n      dup5\n        /* \"#utility.yul\":12351:12372   */\n      and\n        /* \"#utility.yul\":12342:12372   */\n      swap4\n      pop\n        /* \"#utility.yul\":12415:12419   */\n      dup1\n        /* \"#utility.yul\":12405:12413   */\n      dup7\n        /* \"#utility.yul\":12401:12420   */\n      and\n        /* \"#utility.yul\":12394:12399   */\n      dup5\n        /* \"#utility.yul\":12391:12421   */\n      or\n        /* \"#utility.yul\":12381:12421   */\n      swap3\n      pop\n        /* \"#utility.yul\":12110:12427   */\n      pop\n      pop\n        /* \"#utility.yul\":12034:12427   */\n      swap4\n      swap3\n      pop\n      pop\n      pop\n      jump\t// out\n        /* \"#utility.yul\":12433:12493   */\n    tag_181:\n        /* \"#utility.yul\":12461:12464   */\n      0x00\n        /* \"#utility.yul\":12482:12487   */\n      dup2\n        /* \"#utility.yul\":12475:12487   */\n      swap1\n      pop\n        /* \"#utility.yul\":12433:12493   */\n      swap2\n      swap1\n      pop\n      jump\t// out\n        /* \"#utility.yul\":12499:12641   */\n    tag_182:\n        /* \"#utility.yul\":12549:12558   */\n      0x00\n        /* \"#utility.yul\":12582:12635   */\n      tag_317\n        /* \"#utility.yul\":12600:12634   */\n      tag_318\n        /* \"#utility.yul\":12609:12633   */\n      tag_319\n        /* \"#utility.yul\":12627:12632   */\n      dup5\n        /* \"#utility.yul\":12609:12633   */\n      tag_145\n      jump\t// in\n    tag_319:\n        /* \"#utility.yul\":12600:12634   */\n      tag_181\n      jump\t// in\n    tag_318:\n        /* \"#utility.yul\":12582:12635   */\n      tag_145\n      jump\t// in\n    tag_317:\n        /* \"#utility.yul\":12569:12635   */\n      swap1\n      pop\n        /* \"#utility.yul\":12499:12641   */\n      swap2\n      swap1\n      pop\n      jump\t// out\n        /* \"#utility.yul\":12647:12722   */\n    tag_183:\n        /* \"#utility.yul\":12690:12693   */\n      0x00\n        /* \"#utility.yul\":12711:12716   */\n      dup2\n        /* \"#utility.yul\":12704:12716   */\n      swap1\n      pop\n        /* \"#utility.yul\":12647:12722   */\n      swap2\n      swap1\n      pop\n      jump\t// out\n        /* \"#utility.yul\":12728:12997   */\n    tag_184:\n        /* \"#utility.yul\":12838:12877   */\n      tag_322\n        /* \"#utility.yul\":12869:12876   */\n      dup4\n        /* \"#utility.yul\":12838:12877   */\n      tag_182\n      jump\t// in\n    tag_322:\n        /* \"#utility.yul\":12899:12990   */\n      tag_323\n        /* \"#utility.yul\":12948:12989   */\n      tag_324\n        /* \"#utility.yul\":12972:12988   */\n      dup3\n        /* \"#utility.yul\":12948:12989   */\n      tag_183\n      jump\t// in\n    tag_324:\n        /* \"#utility.yul\":12940:12946   */\n      dup5\n        /* \"#utility.yul\":12933:12937   */\n      dup5\n        /* \"#utility.yul\":12927:12938   */\n      sload\n        /* \"#utility.yul\":12899:12990   */\n      tag_180\n      jump\t// in\n    tag_323:\n        /* \"#utility.yul\":12893:12897   */\n      dup3\n        /* \"#utility.yul\":12886:12991   */\n      sstore\n        /* \"#utility.yul\":12804:12997   */\n      pop\n        /* \"#utility.yul\":12728:12997   */\n      pop\n      pop\n      pop\n      jump\t// out\n        /* \"#utility.yul\":13003:13076   */\n    tag_185:\n        /* \"#utility.yul\":13048:13051   */\n      0x00\n        /* \"#utility.yul\":13003:13076   */\n      swap1\n      jump\t// out\n        /* \"#utility.yul\":13082:13271   */\n    tag_186:\n        /* \"#utility.yul\":13159:13191   */\n      tag_327\n      tag_185\n      jump\t// in\n    tag_327:\n        /* \"#utility.yul\":13200:13265   */\n      tag_328\n        /* \"#utility.yul\":13258:13264   */\n      dup2\n        /* \"#utility.yul\":13250:13256   */\n      dup5\n        /* \"#utility.yul\":13244:13248   */\n      dup5\n        /* \"#utility.yul\":13200:13265   */\n      tag_184\n      jump\t// in\n    tag_328:\n        /* \"#utility.yul\":13135:13271   */\n      pop\n        /* \"#utility.yul\":13082:13271   */\n      pop\n      pop\n      jump\t// out\n        /* \"#utility.yul\":13277:13463   */\n    tag_187:\n        /* \"#utility.yul\":13337:13457   */\n    tag_330:\n        /* \"#utility.yul\":13354:13357   */\n      dup2\n        /* \"#utility.yul\":13347:13352   */\n      dup2\n        /* \"#utility.yul\":13344:13358   */\n      lt\n        /* \"#utility.yul\":13337:13457   */\n      iszero\n      tag_332\n      jumpi\n        /* \"#utility.yul\":13408:13447   */\n      tag_333\n        /* \"#utility.yul\":13445:13446   */\n      0x00\n        /* \"#utility.yul\":13438:13443   */\n      dup3\n        /* \"#utility.yul\":13408:13447   */\n      tag_186\n      jump\t// in\n    tag_333:\n        /* \"#utility.yul\":13381:13382   */\n      0x01\n        /* \"#utility.yul\":13374:13379   */\n      dup2\n        /* \"#utility.yul\":13370:13383   */\n      add\n        /* \"#utility.yul\":13361:13383   */\n      swap1\n      pop\n        /* \"#utility.yul\":13337:13457   */\n      jump(tag_330)\n    tag_332:\n        /* \"#utility.yul\":13277:13463   */\n      pop\n      pop\n      jump\t// out\n        /* \"#utility.yul\":13469:14012   */\n    tag_188:\n        /* \"#utility.yul\":13570:13572   */\n      0x1f\n        /* \"#utility.yul\":13565:13568   */\n      dup3\n        /* \"#utility.yul\":13562:13573   */\n      gt\n        /* \"#utility.yul\":13559:14005   */\n      iszero\n      tag_335\n      jumpi\n        /* \"#utility.yul\":13604:13642   */\n      tag_336\n        /* \"#utility.yul\":13636:13641   */\n      dup2\n        /* \"#utility.yul\":13604:13642   */\n      tag_177\n      jump\t// in\n    tag_336:\n        /* \"#utility.yul\":13688:13717   */\n      tag_337\n        /* \"#utility.yul\":13706:13716   */\n      dup5\n        /* \"#utility.yul\":13688:13717   */\n      tag_178\n      jump\t// in\n    tag_337:\n        /* \"#utility.yul\":13678:13686   */\n      dup2\n        /* \"#utility.yul\":13674:13718   */\n      add\n        /* \"#utility.yul\":13871:13873   */\n      0x20\n        /* \"#utility.yul\":13859:13869   */\n      dup6\n        /* \"#utility.yul\":13856:13874   */\n      lt\n        /* \"#utility.yul\":13853:13902   */\n      iszero\n      tag_338\n      jumpi\n        /* \"#utility.yul\":13892:13900   */\n      dup2\n        /* \"#utility.yul\":13877:13900   */\n      swap1\n      pop\n        /* \"#utility.yul\":13853:13902   */\n    tag_338:\n        /* \"#utility.yul\":13915:13995   */\n      tag_339\n        /* \"#utility.yul\":13971:13993   */\n      tag_340\n        /* \"#utility.yul\":13989:13992   */\n      dup6\n        /* \"#utility.yul\":13971:13993   */\n      tag_178\n      jump\t// in\n    tag_340:\n        /* \"#utility.yul\":13961:13969   */\n      dup4\n        /* \"#utility.yul\":13957:13994   */\n      add\n        /* \"#utility.yul\":13944:13955   */\n      dup3\n        /* \"#utility.yul\":13915:13995   */\n      tag_187\n      jump\t// in\n    tag_339:\n        /* \"#utility.yul\":13574:14005   */\n      pop\n      pop\n        /* \"#utility.yul\":13559:14005   */\n    tag_335:\n        /* \"#utility.yul\":13469:14012   */\n      pop\n      pop\n      pop\n      jump\t// out\n        /* \"#utility.yul\":14018:14135   */\n    tag_189:\n        /* \"#utility.yul\":14072:14080   */\n      0x00\n        /* \"#utility.yul\":14122:14127   */\n      dup3\n        /* \"#utility.yul\":14116:14120   */\n      dup3\n        /* \"#utility.yul\":14112:14128   */\n      shr\n        /* \"#utility.yul\":14091:14128   */\n      swap1\n      pop\n        /* \"#utility.yul\":14018:14135   */\n      swap3\n      swap2\n      pop\n      pop\n      jump\t// out\n        /* \"#utility.yul\":14141:14310   */\n    tag_190:\n        /* \"#utility.yul\":14185:14191   */\n      0x00\n        /* \"#utility.yul\":14218:14269   */\n      tag_343\n        /* \"#utility.yul\":14266:14267   */\n      0x00\n        /* \"#utility.yul\":14262:14268   */\n      not\n        /* \"#utility.yul\":14254:14259   */\n      dup5\n        /* \"#utility.yul\":14251:14252   */\n      0x08\n        /* \"#utility.yul\":14247:14260   */\n      mul\n        /* \"#utility.yul\":14218:14269   */\n      tag_189\n      jump\t// in\n    tag_343:\n        /* \"#utility.yul\":14214:14270   */\n      not\n        /* \"#utility.yul\":14299:14303   */\n      dup1\n        /* \"#utility.yul\":14293:14297   */\n      dup4\n        /* \"#utility.yul\":14289:14304   */\n      and\n        /* \"#utility.yul\":14279:14304   */\n      swap2\n      pop\n        /* \"#utility.yul\":14192:14310   */\n      pop\n        /* \"#utility.yul\":14141:14310   */\n      swap3\n      swap2\n      pop\n      pop\n      jump\t// out\n        /* \"#utility.yul\":14315:14610   */\n    tag_191:\n        /* \"#utility.yul\":14391:14395   */\n      0x00\n        /* \"#utility.yul\":14537:14566   */\n      tag_345\n        /* \"#utility.yul\":14562:14565   */\n      dup4\n        /* \"#utility.yul\":14556:14560   */\n      dup4\n        /* \"#utility.yul\":14537:14566   */\n      tag_190\n      jump\t// in\n    tag_345:\n        /* \"#utility.yul\":14529:14566   */\n      swap2\n      pop\n        /* \"#utility.yul\":14599:14602   */\n      dup3\n        /* \"#utility.yul\":14596:14597   */\n      0x02\n        /* \"#utility.yul\":14592:14603   */\n      mul\n        /* \"#utility.yul\":14586:14590   */\n      dup3\n        /* \"#utility.yul\":14583:14604   */\n      or\n        /* \"#utility.yul\":14575:14604   */\n      swap1\n      pop\n        /* \"#utility.yul\":14315:14610   */\n      swap3\n      swap2\n      pop\n      pop\n      jump\t// out\n        /* \"#utility.yul\":14615:16010   */\n    tag_88:\n        /* \"#utility.yul\":14732:14769   */\n      tag_347\n        /* \"#utility.yul\":14765:14768   */\n      dup3\n        /* \"#utility.yul\":14732:14769   */\n      tag_155\n      jump\t// in\n    tag_347:\n        /* \"#utility.yul\":14834:14852   */\n      0xffffffffffffffff\n        /* \"#utility.yul\":14826:14832   */\n      dup2\n        /* \"#utility.yul\":14823:14853   */\n      gt\n        /* \"#utility.yul\":14820:14876   */\n      iszero\n      tag_348\n      jumpi\n        /* \"#utility.yul\":14856:14874   */\n      tag_349\n      tag_41\n      jump\t// in\n    tag_349:\n        /* \"#utility.yul\":14820:14876   */\n    tag_348:\n        /* \"#utility.yul\":14900:14938   */\n      tag_350\n        /* \"#utility.yul\":14932:14936   */\n      dup3\n        /* \"#utility.yul\":14926:14937   */\n      sload\n        /* \"#utility.yul\":14900:14938   */\n      tag_57\n      jump\t// in\n    tag_350:\n        /* \"#utility.yul\":14985:15052   */\n      tag_351\n        /* \"#utility.yul\":15045:15051   */\n      dup3\n        /* \"#utility.yul\":15037:15043   */\n      dup3\n        /* \"#utility.yul\":15031:15035   */\n      dup6\n        /* \"#utility.yul\":14985:15052   */\n      tag_188\n      jump\t// in\n    tag_351:\n        /* \"#utility.yul\":15079:15080   */\n      0x00\n        /* \"#utility.yul\":15103:15107   */\n      0x20\n        /* \"#utility.yul\":15090:15107   */\n      swap1\n      pop\n        /* \"#utility.yul\":15135:15137   */\n      0x1f\n        /* \"#utility.yul\":15127:15133   */\n      dup4\n        /* \"#utility.yul\":15124:15138   */\n      gt\n        /* \"#utility.yul\":15152:15153   */\n      0x01\n        /* \"#utility.yul\":15147:15765   */\n      dup2\n      eq\n      tag_353\n      jumpi\n        /* \"#utility.yul\":15809:15810   */\n      0x00\n        /* \"#utility.yul\":15826:15832   */\n      dup5\n        /* \"#utility.yul\":15823:15900   */\n      iszero\n      tag_354\n      jumpi\n        /* \"#utility.yul\":15875:15884   */\n      dup3\n        /* \"#utility.yul\":15870:15873   */\n      dup8\n        /* \"#utility.yul\":15866:15885   */\n      add\n        /* \"#utility.yul\":15860:15886   */\n      mload\n        /* \"#utility.yul\":15851:15886   */\n      swap1\n      pop\n        /* \"#utility.yul\":15823:15900   */\n    tag_354:\n        /* \"#utility.yul\":15926:15993   */\n      tag_355\n        /* \"#utility.yul\":15986:15992   */\n      dup6\n        /* \"#utility.yul\":15979:15984   */\n      dup3\n        /* \"#utility.yul\":15926:15993   */\n      tag_191\n      jump\t// in\n    tag_355:\n        /* \"#utility.yul\":15920:15924   */\n      dup7\n        /* \"#utility.yul\":15913:15994   */\n      sstore\n        /* \"#utility.yul\":15782:16004   */\n      pop\n        /* \"#utility.yul\":15117:16004   */\n      jump(tag_352)\n        /* \"#utility.yul\":15147:15765   */\n    tag_353:\n        /* \"#utility.yul\":15199:15203   */\n      0x1f\n        /* \"#utility.yul\":15195:15204   */\n      not\n        /* \"#utility.yul\":15187:15193   */\n      dup5\n        /* \"#utility.yul\":15183:15205   */\n      and\n        /* \"#utility.yul\":15233:15270   */\n      tag_356\n        /* \"#utility.yul\":15265:15269   */\n      dup7\n        /* \"#utility.yul\":15233:15270   */\n      tag_177\n      jump\t// in\n    tag_356:\n        /* \"#utility.yul\":15292:15293   */\n      0x00\n        /* \"#utility.yul\":15306:15514   */\n    tag_357:\n        /* \"#utility.yul\":15320:15327   */\n      dup3\n        /* \"#utility.yul\":15317:15318   */\n      dup2\n        /* \"#utility.yul\":15314:15328   */\n      lt\n        /* \"#utility.yul\":15306:15514   */\n      iszero\n      tag_359\n      jumpi\n        /* \"#utility.yul\":15399:15408   */\n      dup5\n        /* \"#utility.yul\":15394:15397   */\n      dup10\n        /* \"#utility.yul\":15390:15409   */\n      add\n        /* \"#utility.yul\":15384:15410   */\n      mload\n        /* \"#utility.yul\":15376:15382   */\n      dup3\n        /* \"#utility.yul\":15369:15411   */\n      sstore\n        /* \"#utility.yul\":15450:15451   */\n      0x01\n        /* \"#utility.yul\":15442:15448   */\n      dup3\n        /* \"#utility.yul\":15438:15452   */\n      add\n        /* \"#utility.yul\":15428:15452   */\n      swap2\n      pop\n        /* \"#utility.yul\":15497:15499   */\n      0x20\n        /* \"#utility.yul\":15486:15495   */\n      dup6\n        /* \"#utility.yul\":15482:15500   */\n      add\n        /* \"#utility.yul\":15469:15500   */\n      swap5\n      pop\n        /* \"#utility.yul\":15343:15347   */\n      0x20\n        /* \"#utility.yul\":15340:15341   */\n      dup2\n        /* \"#utility.yul\":15336:15348   */\n      add\n        /* \"#utility.yul\":15331:15348   */\n      swap1\n      pop\n        /* \"#utility.yul\":15306:15514   */\n      jump(tag_357)\n    tag_359:\n        /* \"#utility.yul\":15542:15548   */\n      dup7\n        /* \"#utility.yul\":15533:15540   */\n      dup4\n        /* \"#utility.yul\":15530:15549   */\n      lt\n        /* \"#utility.yul\":15527:15706   */\n      iszero\n      tag_360\n      jumpi\n        /* \"#utility.yul\":15600:15609   */\n      dup5\n        /* \"#utility.yul\":15595:15598   */\n      dup10\n        /* \"#utility.yul\":15591:15610   */\n      add\n        /* \"#utility.yul\":15585:15611   */\n      mload\n        /* \"#utility.yul\":15643:15691   */\n      tag_361\n        /* \"#utility.yul\":15685:15689   */\n      0x1f\n        /* \"#utility.yul\":15677:15683   */\n      dup10\n        /* \"#utility.yul\":15673:15690   */\n      and\n        /* \"#utility.yul\":15662:15671   */\n      dup3\n        /* \"#utility.yul\":15643:15691   */\n      tag_190\n      jump\t// in\n    tag_361:\n        /* \"#utility.yul\":15635:15641   */\n      dup4\n        /* \"#utility.yul\":15628:15692   */\n      sstore\n        /* \"#utility.yul\":15550:15706   */\n      pop\n        /* \"#utility.yul\":15527:15706   */\n    tag_360:\n        /* \"#utility.yul\":15752:15753   */\n      0x01\n        /* \"#utility.yul\":15748:15749   */\n      0x02\n        /* \"#utility.yul\":15740:15746   */\n      dup9\n        /* \"#utility.yul\":15736:15750   */\n      mul\n        /* \"#utility.yul\":15732:15754   */\n      add\n        /* \"#utility.yul\":15726:15730   */\n      dup9\n        /* \"#utility.yul\":15719:15755   */\n      sstore\n        /* \"#utility.yul\":15154:15765   */\n      pop\n      pop\n      pop\n        /* \"#utility.yul\":15117:16004   */\n    tag_352:\n      pop\n        /* \"#utility.yul\":14707:16010   */\n      pop\n      pop\n      pop\n        /* \"#utility.yul\":14615:16010   */\n      pop\n      pop\n      jump\t// out\n        /* \"#utility.yul\":16016:16134   */\n    tag_192:\n        /* \"#utility.yul\":16103:16127   */\n      tag_363\n        /* \"#utility.yul\":16121:16126   */\n      dup2\n        /* \"#utility.yul\":16103:16127   */\n      tag_153\n      jump\t// in\n    tag_363:\n        /* \"#utility.yul\":16098:16101   */\n      dup3\n        /* \"#utility.yul\":16091:16128   */\n      mstore\n        /* \"#utility.yul\":16016:16134   */\n      pop\n      pop\n      jump\t// out\n        /* \"#utility.yul\":16140:16472   */\n    tag_91:\n        /* \"#utility.yul\":16261:16265   */\n      0x00\n        /* \"#utility.yul\":16299:16301   */\n      0x40\n        /* \"#utility.yul\":16288:16297   */\n      dup3\n        /* \"#utility.yul\":16284:16302   */\n      add\n        /* \"#utility.yul\":16276:16302   */\n      swap1\n      pop\n        /* \"#utility.yul\":16312:16383   */\n      tag_365\n        /* \"#utility.yul\":16380:16381   */\n      0x00\n        /* \"#utility.yul\":16369:16378   */\n      dup4\n        /* \"#utility.yul\":16365:16382   */\n      add\n        /* \"#utility.yul\":16356:16362   */\n      dup6\n        /* \"#utility.yul\":16312:16383   */\n      tag_192\n      jump\t// in\n    tag_365:\n        /* \"#utility.yul\":16393:16465   */\n      tag_366\n        /* \"#utility.yul\":16461:16463   */\n      0x20\n        /* \"#utility.yul\":16450:16459   */\n      dup4\n        /* \"#utility.yul\":16446:16464   */\n      add\n        /* \"#utility.yul\":16437:16443   */\n      dup5\n        /* \"#utility.yul\":16393:16465   */\n      tag_175\n      jump\t// in\n    tag_366:\n        /* \"#utility.yul\":16140:16472   */\n      swap4\n      swap3\n      pop\n      pop\n      pop\n      jump\t// out\n        /* \"#utility.yul\":16478:16669   */\n    tag_137:\n        /* \"#utility.yul\":16518:16521   */\n      0x00\n        /* \"#utility.yul\":16537:16557   */\n      tag_368\n        /* \"#utility.yul\":16555:16556   */\n      dup3\n        /* \"#utility.yul\":16537:16557   */\n      tag_145\n      jump\t// in\n    tag_368:\n        /* \"#utility.yul\":16532:16557   */\n      swap2\n      pop\n        /* \"#utility.yul\":16571:16591   */\n      tag_369\n        /* \"#utility.yul\":16589:16590   */\n      dup4\n        /* \"#utility.yul\":16571:16591   */\n      tag_145\n      jump\t// in\n    tag_369:\n        /* \"#utility.yul\":16566:16591   */\n      swap3\n      pop\n        /* \"#utility.yul\":16614:16615   */\n      dup3\n        /* \"#utility.yul\":16611:16612   */\n      dup3\n        /* \"#utility.yul\":16607:16616   */\n      add\n        /* \"#utility.yul\":16600:16616   */\n      swap1\n      pop\n        /* \"#utility.yul\":16635:16638   */\n      dup1\n        /* \"#utility.yul\":16632:16633   */\n      dup3\n        /* \"#utility.yul\":16629:16639   */\n      gt\n        /* \"#utility.yul\":16626:16662   */\n      iszero\n      tag_370\n      jumpi\n        /* \"#utility.yul\":16642:16660   */\n      tag_371\n      tag_174\n      jump\t// in\n    tag_371:\n        /* \"#utility.yul\":16626:16662   */\n    tag_370:\n        /* \"#utility.yul\":16478:16669   */\n      swap3\n      swap2\n      pop\n      pop\n      jump\t// out\n\n    auxdata: 0xa2646970667358221220441eab1cd858d261f11c839e10494e3a8b45a01a88b2ecb3de8e18de56d8f21164736f6c63430008120033\n}\n",
				"bytecode": {
					"linkReferences": {},
					"object": "608060405234801561001057600080fd5b506115d9806100206000396000f3fe608060405234801561001057600080fd5b50600436106100575760003560e01c80631ae9392d1461005c5780636529f44a146100785780636ec67ec914610096578063b5df05fc146100b2578063ec859db5146100d0575b600080fd5b61007660048036038101906100719190610ce5565b6100ec565b005b610080610186565b60405161008d9190610f86565b60405180910390f35b6100b060048036038101906100ab91906110dd565b61055e565b005b6100ba610788565b6040516100c79190610f86565b60405180910390f35b6100ea60048036038101906100e59190610ce5565b610b8e565b005b600080828154811061010157610100611155565b5b906000526020600020906007020160050154905060018161012291906111b3565b6000838154811061013657610135611155565b5b9060005260206000209060070201600401819055507fb04f0eb983ca25421a017dad0ac789ba4939c5a3bc43d322943cd64257424a2b8260405161017a91906111f6565b60405180910390a15050565b60606000808054905067ffffffffffffffff8111156101a8576101a7610fb2565b5b6040519080825280602002602001820160405280156101e157816020015b6101ce610c28565b8152602001906001900390816101c65790505b5090506000805b6000805490508110156104a4576000818154811061020957610208611155565b5b906000526020600020906007020160060160009054906101000a900460ff1615610491576000818154811061024157610240611155565b5b906000526020600020906007020160405180610100016040529081600082015481526020016001820160009054906101000a900473ffffffffffffffffffffffffffffffffffffffff1673ffffffffffffffffffffffffffffffffffffffff1673ffffffffffffffffffffffffffffffffffffffff1681526020016002820180546102cb90611240565b80601f01602080910402602001604051908101604052809291908181526020018280546102f790611240565b80156103445780601f1061031957610100808354040283529160200191610344565b820191906000526020600020905b81548152906001019060200180831161032757829003601f168201915b5050505050815260200160038201805461035d90611240565b80601f016020809104026020016040519081016040528092919081815260200182805461038990611240565b80156103d65780601f106103ab576101008083540402835291602001916103d6565b820191906000526020600020905b8154815290600101906020018083116103b957829003601f168201915b5050505050815260200160048201548152602001600582015481526020016006820160009054906101000a900460ff161515151581526020016006820160019054906101000a900473ffffffffffffffffffffffffffffffffffffffff1673ffffffffffffffffffffffffffffffffffffffff1673ffffffffffffffffffffffffffffffffffffffff168152505083838151811061047757610476611155565b5b6020026020010181905250818061048d90611271565b9250505b808061049c90611271565b9150506101e8565b5060008167ffffffffffffffff8111156104c1576104c0610fb2565b5b6040519080825280602002602001820160405280156104fa57816020015b6104e7610c28565b8152602001906001900390816104df5790505b50905060005b828110156105545783818151811061051b5761051a611155565b5b602002602001015182828151811061053657610535611155565b5b6020026020010181905250808061054c90611271565b915050610500565b5080935050505090565b60008080549050905060006040518061010001604052808381526020013373ffffffffffffffffffffffffffffffffffffffff1681526020018581526020018481526020016000815260200160008152602001600015158152602001600073ffffffffffffffffffffffffffffffffffffffff1681525090806001815401808255809150506001900390600052602060002090600702016000909190919091506000820151816000015560208201518160010160006101000a81548173ffffffffffffffffffffffffffffffffffffffff021916908373ffffffffffffffffffffffffffffffffffffffff16021790555060408201518160020190816106649190611465565b50606082015181600301908161067a9190611465565b506080820151816004015560a0820151816005015560c08201518160060160006101000a81548160ff02191690831515021790555060e08201518160060160016101000a81548173ffffffffffffffffffffffffffffffffffffffff021916908373ffffffffffffffffffffffffffffffffffffffff1602179055505050336001600083815260200190815260200160002060006101000a81548173ffffffffffffffffffffffffffffffffffffffff021916908373ffffffffffffffffffffffffffffffffffffffff1602179055507f9654e79a6f29fff90577ee2c24638a110a77cabb965a5cf60beb0abf899d5dc9338260405161077b929190611546565b60405180910390a1505050565b60606000808054905067ffffffffffffffff8111156107aa576107a9610fb2565b5b6040519080825280602002602001820160405280156107e357816020015b6107d0610c28565b8152602001906001900390816107c85790505b5090506000805b600080549050811015610ad4573373ffffffffffffffffffffffffffffffffffffffff166001600083815260200190815260200160002060009054906101000a900473ffffffffffffffffffffffffffffffffffffffff1673ffffffffffffffffffffffffffffffffffffffff1603610ac1576000818154811061087157610870611155565b5b906000526020600020906007020160405180610100016040529081600082015481526020016001820160009054906101000a900473ffffffffffffffffffffffffffffffffffffffff1673ffffffffffffffffffffffffffffffffffffffff1673ffffffffffffffffffffffffffffffffffffffff1681526020016002820180546108fb90611240565b80601f016020809104026020016040519081016040528092919081815260200182805461092790611240565b80156109745780601f1061094957610100808354040283529160200191610974565b820191906000526020600020905b81548152906001019060200180831161095757829003601f168201915b5050505050815260200160038201805461098d90611240565b80601f01602080910402602001604051908101604052809291908181526020018280546109b990611240565b8015610a065780601f106109db57610100808354040283529160200191610a06565b820191906000526020600020905b8154815290600101906020018083116109e957829003601f168201915b5050505050815260200160048201548152602001600582015481526020016006820160009054906101000a900460ff161515151581526020016006820160019054906101000a900473ffffffffffffffffffffffffffffffffffffffff1673ffffffffffffffffffffffffffffffffffffffff1673ffffffffffffffffffffffffffffffffffffffff1681525050838381518110610aa757610aa6611155565b5b60200260200101819052508180610abd90611271565b9250505b8080610acc90611271565b9150506107ea565b5060008167ffffffffffffffff811115610af157610af0610fb2565b5b604051908082528060200260200182016040528015610b2a57816020015b610b17610c28565b815260200190600190039081610b0f5790505b50905060005b82811015610b8457838181518110610b4b57610b4a611155565b5b6020026020010151828281518110610b6657610b65611155565b5b60200260200101819052508080610b7c90611271565b915050610b30565b5080935050505090565b6000808281548110610ba357610ba2611155565b5b9060005260206000209060070201600401549050600181610bc4919061156f565b60008381548110610bd857610bd7611155565b5b9060005260206000209060070201600401819055507fc59201f408fbae001b55ad98f7034e9ad7216c634d38c03c3a6bf75e2aeb365682604051610c1c91906111f6565b60405180910390a15050565b60405180610100016040528060008152602001600073ffffffffffffffffffffffffffffffffffffffff16815260200160608152602001606081526020016000815260200160008152602001600015158152602001600073ffffffffffffffffffffffffffffffffffffffff1681525090565b6000604051905090565b600080fd5b600080fd5b6000819050919050565b610cc281610caf565b8114610ccd57600080fd5b50565b600081359050610cdf81610cb9565b92915050565b600060208284031215610cfb57610cfa610ca5565b5b6000610d0984828501610cd0565b91505092915050565b600081519050919050565b600082825260208201905092915050565b6000819050602082019050919050565b610d4781610caf565b82525050565b600073ffffffffffffffffffffffffffffffffffffffff82169050919050565b6000610d7882610d4d565b9050919050565b610d8881610d6d565b82525050565b600081519050919050565b600082825260208201905092915050565b60005b83811015610dc8578082015181840152602081019050610dad565b60008484015250505050565b6000601f19601f8301169050919050565b6000610df082610d8e565b610dfa8185610d99565b9350610e0a818560208601610daa565b610e1381610dd4565b840191505092915050565b60008115159050919050565b610e3381610e1e565b82525050565b600061010083016000830151610e526000860182610d3e565b506020830151610e656020860182610d7f565b5060408301518482036040860152610e7d8282610de5565b91505060608301518482036060860152610e978282610de5565b9150506080830151610eac6080860182610d3e565b5060a0830151610ebf60a0860182610d3e565b5060c0830151610ed260c0860182610e2a565b5060e0830151610ee560e0860182610d7f565b508091505092915050565b6000610efc8383610e39565b905092915050565b6000602082019050919050565b6000610f1c82610d12565b610f268185610d1d565b935083602082028501610f3885610d2e565b8060005b85811015610f745784840389528151610f558582610ef0565b9450610f6083610f04565b925060208a01995050600181019050610f3c565b50829750879550505050505092915050565b60006020820190508181036000830152610fa08184610f11565b905092915050565b600080fd5b600080fd5b7f4e487b7100000000000000000000000000000000000000000000000000000000600052604160045260246000fd5b610fea82610dd4565b810181811067ffffffffffffffff8211171561100957611008610fb2565b5b80604052505050565b600061101c610c9b565b90506110288282610fe1565b919050565b600067ffffffffffffffff82111561104857611047610fb2565b5b61105182610dd4565b9050602081019050919050565b82818337600083830152505050565b600061108061107b8461102d565b611012565b90508281526020810184848401111561109c5761109b610fad565b5b6110a784828561105e565b509392505050565b600082601f8301126110c4576110c3610fa8565b5b81356110d484826020860161106d565b91505092915050565b600080604083850312156110f4576110f3610ca5565b5b600083013567ffffffffffffffff81111561111257611111610caa565b5b61111e858286016110af565b925050602083013567ffffffffffffffff81111561113f5761113e610caa565b5b61114b858286016110af565b9150509250929050565b7f4e487b7100000000000000000000000000000000000000000000000000000000600052603260045260246000fd5b7f4e487b7100000000000000000000000000000000000000000000000000000000600052601160045260246000fd5b60006111be82610caf565b91506111c983610caf565b92508282039050818111156111e1576111e0611184565b5b92915050565b6111f081610caf565b82525050565b600060208201905061120b60008301846111e7565b92915050565b7f4e487b7100000000000000000000000000000000000000000000000000000000600052602260045260246000fd5b6000600282049050600182168061125857607f821691505b60208210810361126b5761126a611211565b5b50919050565b600061127c82610caf565b91507fffffffffffffffffffffffffffffffffffffffffffffffffffffffffffffffff82036112ae576112ad611184565b5b600182019050919050565b60008190508160005260206000209050919050565b60006020601f8301049050919050565b600082821b905092915050565b60006008830261131b7fffffffffffffffffffffffffffffffffffffffffffffffffffffffffffffffff826112de565b61132586836112de565b95508019841693508086168417925050509392505050565b6000819050919050565b600061136261135d61135884610caf565b61133d565b610caf565b9050919050565b6000819050919050565b61137c83611347565b61139061138882611369565b8484546112eb565b825550505050565b600090565b6113a5611398565b6113b0818484611373565b505050565b5b818110156113d4576113c960008261139d565b6001810190506113b6565b5050565b601f821115611419576113ea816112b9565b6113f3846112ce565b81016020851015611402578190505b61141661140e856112ce565b8301826113b5565b50505b505050565b600082821c905092915050565b600061143c6000198460080261141e565b1980831691505092915050565b6000611455838361142b565b9150826002028217905092915050565b61146e82610d8e565b67ffffffffffffffff81111561148757611486610fb2565b5b6114918254611240565b61149c8282856113d8565b600060209050601f8311600181146114cf57600084156114bd578287015190505b6114c78582611449565b86555061152f565b601f1984166114dd866112b9565b60005b82811015611505578489015182556001820191506020850194506020810190506114e0565b86831015611522578489015161151e601f89168261142b565b8355505b6001600288020188555050505b505050505050565b61154081610d6d565b82525050565b600060408201905061155b6000830185611537565b61156860208301846111e7565b9392505050565b600061157a82610caf565b915061158583610caf565b925082820190508082111561159d5761159c611184565b5b9291505056fea2646970667358221220441eab1cd858d261f11c839e10494e3a8b45a01a88b2ecb3de8e18de56d8f21164736f6c63430008120033",
					"opcodes": "PUSH1 0x80 PUSH1 0x40 MSTORE CALLVALUE DUP1 ISZERO PUSH2 0x10 JUMPI PUSH1 0x0 DUP1 REVERT JUMPDEST POP PUSH2 0x15D9 DUP1 PUSH2 0x20 PUSH1 0x0 CODECOPY PUSH1 0x0 RETURN INVALID PUSH1 0x80 PUSH1 0x40 MSTORE CALLVALUE DUP1 ISZERO PUSH2 0x10 JUMPI PUSH1 0x0 DUP1 REVERT JUMPDEST POP PUSH1 0x4 CALLDATASIZE LT PUSH2 0x57 JUMPI PUSH1 0x0 CALLDATALOAD PUSH1 0xE0 SHR DUP1 PUSH4 0x1AE9392D EQ PUSH2 0x5C JUMPI DUP1 PUSH4 0x6529F44A EQ PUSH2 0x78 JUMPI DUP1 PUSH4 0x6EC67EC9 EQ PUSH2 0x96 JUMPI DUP1 PUSH4 0xB5DF05FC EQ PUSH2 0xB2 JUMPI DUP1 PUSH4 0xEC859DB5 EQ PUSH2 0xD0 JUMPI JUMPDEST PUSH1 0x0 DUP1 REVERT JUMPDEST PUSH2 0x76 PUSH1 0x4 DUP1 CALLDATASIZE SUB DUP2 ADD SWAP1 PUSH2 0x71 SWAP2 SWAP1 PUSH2 0xCE5 JUMP JUMPDEST PUSH2 0xEC JUMP JUMPDEST STOP JUMPDEST PUSH2 0x80 PUSH2 0x186 JUMP JUMPDEST PUSH1 0x40 MLOAD PUSH2 0x8D SWAP2 SWAP1 PUSH2 0xF86 JUMP JUMPDEST PUSH1 0x40 MLOAD DUP1 SWAP2 SUB SWAP1 RETURN JUMPDEST PUSH2 0xB0 PUSH1 0x4 DUP1 CALLDATASIZE SUB DUP2 ADD SWAP1 PUSH2 0xAB SWAP2 SWAP1 PUSH2 0x10DD JUMP JUMPDEST PUSH2 0x55E JUMP JUMPDEST STOP JUMPDEST PUSH2 0xBA PUSH2 0x788 JUMP JUMPDEST PUSH1 0x40 MLOAD PUSH2 0xC7 SWAP2 SWAP1 PUSH2 0xF86 JUMP JUMPDEST PUSH1 0x40 MLOAD DUP1 SWAP2 SUB SWAP1 RETURN JUMPDEST PUSH2 0xEA PUSH1 0x4 DUP1 CALLDATASIZE SUB DUP2 ADD SWAP1 PUSH2 0xE5 SWAP2 SWAP1 PUSH2 0xCE5 JUMP JUMPDEST PUSH2 0xB8E JUMP JUMPDEST STOP JUMPDEST PUSH1 0x0 DUP1 DUP3 DUP2 SLOAD DUP2 LT PUSH2 0x101 JUMPI PUSH2 0x100 PUSH2 0x1155 JUMP JUMPDEST JUMPDEST SWAP1 PUSH1 0x0 MSTORE PUSH1 0x20 PUSH1 0x0 KECCAK256 SWAP1 PUSH1 0x7 MUL ADD PUSH1 0x5 ADD SLOAD SWAP1 POP PUSH1 0x1 DUP2 PUSH2 0x122 SWAP2 SWAP1 PUSH2 0x11B3 JUMP JUMPDEST PUSH1 0x0 DUP4 DUP2 SLOAD DUP2 LT PUSH2 0x136 JUMPI PUSH2 0x135 PUSH2 0x1155 JUMP JUMPDEST JUMPDEST SWAP1 PUSH1 0x0 MSTORE PUSH1 0x20 PUSH1 0x0 KECCAK256 SWAP1 PUSH1 0x7 MUL ADD PUSH1 0x4 ADD DUP2 SWAP1 SSTORE POP PUSH32 0xB04F0EB983CA25421A017DAD0AC789BA4939C5A3BC43D322943CD64257424A2B DUP3 PUSH1 0x40 MLOAD PUSH2 0x17A SWAP2 SWAP1 PUSH2 0x11F6 JUMP JUMPDEST PUSH1 0x40 MLOAD DUP1 SWAP2 SUB SWAP1 LOG1 POP POP JUMP JUMPDEST PUSH1 0x60 PUSH1 0x0 DUP1 DUP1 SLOAD SWAP1 POP PUSH8 0xFFFFFFFFFFFFFFFF DUP2 GT ISZERO PUSH2 0x1A8 JUMPI PUSH2 0x1A7 PUSH2 0xFB2 JUMP JUMPDEST JUMPDEST PUSH1 0x40 MLOAD SWAP1 DUP1 DUP3 MSTORE DUP1 PUSH1 0x20 MUL PUSH1 0x20 ADD DUP3 ADD PUSH1 0x40 MSTORE DUP1 ISZERO PUSH2 0x1E1 JUMPI DUP2 PUSH1 0x20 ADD JUMPDEST PUSH2 0x1CE PUSH2 0xC28 JUMP JUMPDEST DUP2 MSTORE PUSH1 0x20 ADD SWAP1 PUSH1 0x1 SWAP1 SUB SWAP1 DUP2 PUSH2 0x1C6 JUMPI SWAP1 POP JUMPDEST POP SWAP1 POP PUSH1 0x0 DUP1 JUMPDEST PUSH1 0x0 DUP1 SLOAD SWAP1 POP DUP2 LT ISZERO PUSH2 0x4A4 JUMPI PUSH1 0x0 DUP2 DUP2 SLOAD DUP2 LT PUSH2 0x209 JUMPI PUSH2 0x208 PUSH2 0x1155 JUMP JUMPDEST JUMPDEST SWAP1 PUSH1 0x0 MSTORE PUSH1 0x20 PUSH1 0x0 KECCAK256 SWAP1 PUSH1 0x7 MUL ADD PUSH1 0x6 ADD PUSH1 0x0 SWAP1 SLOAD SWAP1 PUSH2 0x100 EXP SWAP1 DIV PUSH1 0xFF AND ISZERO PUSH2 0x491 JUMPI PUSH1 0x0 DUP2 DUP2 SLOAD DUP2 LT PUSH2 0x241 JUMPI PUSH2 0x240 PUSH2 0x1155 JUMP JUMPDEST JUMPDEST SWAP1 PUSH1 0x0 MSTORE PUSH1 0x20 PUSH1 0x0 KECCAK256 SWAP1 PUSH1 0x7 MUL ADD PUSH1 0x40 MLOAD DUP1 PUSH2 0x100 ADD PUSH1 0x40 MSTORE SWAP1 DUP2 PUSH1 0x0 DUP3 ADD SLOAD DUP2 MSTORE PUSH1 0x20 ADD PUSH1 0x1 DUP3 ADD PUSH1 0x0 SWAP1 SLOAD SWAP1 PUSH2 0x100 EXP SWAP1 DIV PUSH20 0xFFFFFFFFFFFFFFFFFFFFFFFFFFFFFFFFFFFFFFFF AND PUSH20 0xFFFFFFFFFFFFFFFFFFFFFFFFFFFFFFFFFFFFFFFF AND PUSH20 0xFFFFFFFFFFFFFFFFFFFFFFFFFFFFFFFFFFFFFFFF AND DUP2 MSTORE PUSH1 0x20 ADD PUSH1 0x2 DUP3 ADD DUP1 SLOAD PUSH2 0x2CB SWAP1 PUSH2 0x1240 JUMP JUMPDEST DUP1 PUSH1 0x1F ADD PUSH1 0x20 DUP1 SWAP2 DIV MUL PUSH1 0x20 ADD PUSH1 0x40 MLOAD SWAP1 DUP2 ADD PUSH1 0x40 MSTORE DUP1 SWAP3 SWAP2 SWAP1 DUP2 DUP2 MSTORE PUSH1 0x20 ADD DUP3 DUP1 SLOAD PUSH2 0x2F7 SWAP1 PUSH2 0x1240 JUMP JUMPDEST DUP1 ISZERO PUSH2 0x344 JUMPI DUP1 PUSH1 0x1F LT PUSH2 0x319 JUMPI PUSH2 0x100 DUP1 DUP4 SLOAD DIV MUL DUP4 MSTORE SWAP2 PUSH1 0x20 ADD SWAP2 PUSH2 0x344 JUMP JUMPDEST DUP3 ADD SWAP2 SWAP1 PUSH1 0x0 MSTORE PUSH1 0x20 PUSH1 0x0 KECCAK256 SWAP1 JUMPDEST DUP2 SLOAD DUP2 MSTORE SWAP1 PUSH1 0x1 ADD SWAP1 PUSH1 0x20 ADD DUP1 DUP4 GT PUSH2 0x327 JUMPI DUP3 SWAP1 SUB PUSH1 0x1F AND DUP3 ADD SWAP2 JUMPDEST POP POP POP POP POP DUP2 MSTORE PUSH1 0x20 ADD PUSH1 0x3 DUP3 ADD DUP1 SLOAD PUSH2 0x35D SWAP1 PUSH2 0x1240 JUMP JUMPDEST DUP1 PUSH1 0x1F ADD PUSH1 0x20 DUP1 SWAP2 DIV MUL PUSH1 0x20 ADD PUSH1 0x40 MLOAD SWAP1 DUP2 ADD PUSH1 0x40 MSTORE DUP1 SWAP3 SWAP2 SWAP1 DUP2 DUP2 MSTORE PUSH1 0x20 ADD DUP3 DUP1 SLOAD PUSH2 0x389 SWAP1 PUSH2 0x1240 JUMP JUMPDEST DUP1 ISZERO PUSH2 0x3D6 JUMPI DUP1 PUSH1 0x1F LT PUSH2 0x3AB JUMPI PUSH2 0x100 DUP1 DUP4 SLOAD DIV MUL DUP4 MSTORE SWAP2 PUSH1 0x20 ADD SWAP2 PUSH2 0x3D6 JUMP JUMPDEST DUP3 ADD SWAP2 SWAP1 PUSH1 0x0 MSTORE PUSH1 0x20 PUSH1 0x0 KECCAK256 SWAP1 JUMPDEST DUP2 SLOAD DUP2 MSTORE SWAP1 PUSH1 0x1 ADD SWAP1 PUSH1 0x20 ADD DUP1 DUP4 GT PUSH2 0x3B9 JUMPI DUP3 SWAP1 SUB PUSH1 0x1F AND DUP3 ADD SWAP2 JUMPDEST POP POP POP POP POP DUP2 MSTORE PUSH1 0x20 ADD PUSH1 0x4 DUP3 ADD SLOAD DUP2 MSTORE PUSH1 0x20 ADD PUSH1 0x5 DUP3 ADD SLOAD DUP2 MSTORE PUSH1 0x20 ADD PUSH1 0x6 DUP3 ADD PUSH1 0x0 SWAP1 SLOAD SWAP1 PUSH2 0x100 EXP SWAP1 DIV PUSH1 0xFF AND ISZERO ISZERO ISZERO ISZERO DUP2 MSTORE PUSH1 0x20 ADD PUSH1 0x6 DUP3 ADD PUSH1 0x1 SWAP1 SLOAD SWAP1 PUSH2 0x100 EXP SWAP1 DIV PUSH20 0xFFFFFFFFFFFFFFFFFFFFFFFFFFFFFFFFFFFFFFFF AND PUSH20 0xFFFFFFFFFFFFFFFFFFFFFFFFFFFFFFFFFFFFFFFF AND PUSH20 0xFFFFFFFFFFFFFFFFFFFFFFFFFFFFFFFFFFFFFFFF AND DUP2 MSTORE POP POP DUP4 DUP4 DUP2 MLOAD DUP2 LT PUSH2 0x477 JUMPI PUSH2 0x476 PUSH2 0x1155 JUMP JUMPDEST JUMPDEST PUSH1 0x20 MUL PUSH1 0x20 ADD ADD DUP2 SWAP1 MSTORE POP DUP2 DUP1 PUSH2 0x48D SWAP1 PUSH2 0x1271 JUMP JUMPDEST SWAP3 POP POP JUMPDEST DUP1 DUP1 PUSH2 0x49C SWAP1 PUSH2 0x1271 JUMP JUMPDEST SWAP2 POP POP PUSH2 0x1E8 JUMP JUMPDEST POP PUSH1 0x0 DUP2 PUSH8 0xFFFFFFFFFFFFFFFF DUP2 GT ISZERO PUSH2 0x4C1 JUMPI PUSH2 0x4C0 PUSH2 0xFB2 JUMP JUMPDEST JUMPDEST PUSH1 0x40 MLOAD SWAP1 DUP1 DUP3 MSTORE DUP1 PUSH1 0x20 MUL PUSH1 0x20 ADD DUP3 ADD PUSH1 0x40 MSTORE DUP1 ISZERO PUSH2 0x4FA JUMPI DUP2 PUSH1 0x20 ADD JUMPDEST PUSH2 0x4E7 PUSH2 0xC28 JUMP JUMPDEST DUP2 MSTORE PUSH1 0x20 ADD SWAP1 PUSH1 0x1 SWAP1 SUB SWAP1 DUP2 PUSH2 0x4DF JUMPI SWAP1 POP JUMPDEST POP SWAP1 POP PUSH1 0x0 JUMPDEST DUP3 DUP2 LT ISZERO PUSH2 0x554 JUMPI DUP4 DUP2 DUP2 MLOAD DUP2 LT PUSH2 0x51B JUMPI PUSH2 0x51A PUSH2 0x1155 JUMP JUMPDEST JUMPDEST PUSH1 0x20 MUL PUSH1 0x20 ADD ADD MLOAD DUP3 DUP3 DUP2 MLOAD DUP2 LT PUSH2 0x536 JUMPI PUSH2 0x535 PUSH2 0x1155 JUMP JUMPDEST JUMPDEST PUSH1 0x20 MUL PUSH1 0x20 ADD ADD DUP2 SWAP1 MSTORE POP DUP1 DUP1 PUSH2 0x54C SWAP1 PUSH2 0x1271 JUMP JUMPDEST SWAP2 POP POP PUSH2 0x500 JUMP JUMPDEST POP DUP1 SWAP4 POP POP POP POP SWAP1 JUMP JUMPDEST PUSH1 0x0 DUP1 DUP1 SLOAD SWAP1 POP SWAP1 POP PUSH1 0x0 PUSH1 0x40 MLOAD DUP1 PUSH2 0x100 ADD PUSH1 0x40 MSTORE DUP1 DUP4 DUP2 MSTORE PUSH1 0x20 ADD CALLER PUSH20 0xFFFFFFFFFFFFFFFFFFFFFFFFFFFFFFFFFFFFFFFF AND DUP2 MSTORE PUSH1 0x20 ADD DUP6 DUP2 MSTORE PUSH1 0x20 ADD DUP5 DUP2 MSTORE PUSH1 0x20 ADD PUSH1 0x0 DUP2 MSTORE PUSH1 0x20 ADD PUSH1 0x0 DUP2 MSTORE PUSH1 0x20 ADD PUSH1 0x0 ISZERO ISZERO DUP2 MSTORE PUSH1 0x20 ADD PUSH1 0x0 PUSH20 0xFFFFFFFFFFFFFFFFFFFFFFFFFFFFFFFFFFFFFFFF AND DUP2 MSTORE POP SWAP1 DUP1 PUSH1 0x1 DUP2 SLOAD ADD DUP1 DUP3 SSTORE DUP1 SWAP2 POP POP PUSH1 0x1 SWAP1 SUB SWAP1 PUSH1 0x0 MSTORE PUSH1 0x20 PUSH1 0x0 KECCAK256 SWAP1 PUSH1 0x7 MUL ADD PUSH1 0x0 SWAP1 SWAP2 SWAP1 SWAP2 SWAP1 SWAP2 POP PUSH1 0x0 DUP3 ADD MLOAD DUP2 PUSH1 0x0 ADD SSTORE PUSH1 0x20 DUP3 ADD MLOAD DUP2 PUSH1 0x1 ADD PUSH1 0x0 PUSH2 0x100 EXP DUP2 SLOAD DUP2 PUSH20 0xFFFFFFFFFFFFFFFFFFFFFFFFFFFFFFFFFFFFFFFF MUL NOT AND SWAP1 DUP4 PUSH20 0xFFFFFFFFFFFFFFFFFFFFFFFFFFFFFFFFFFFFFFFF AND MUL OR SWAP1 SSTORE POP PUSH1 0x40 DUP3 ADD MLOAD DUP2 PUSH1 0x2 ADD SWAP1 DUP2 PUSH2 0x664 SWAP2 SWAP1 PUSH2 0x1465 JUMP JUMPDEST POP PUSH1 0x60 DUP3 ADD MLOAD DUP2 PUSH1 0x3 ADD SWAP1 DUP2 PUSH2 0x67A SWAP2 SWAP1 PUSH2 0x1465 JUMP JUMPDEST POP PUSH1 0x80 DUP3 ADD MLOAD DUP2 PUSH1 0x4 ADD SSTORE PUSH1 0xA0 DUP3 ADD MLOAD DUP2 PUSH1 0x5 ADD SSTORE PUSH1 0xC0 DUP3 ADD MLOAD DUP2 PUSH1 0x6 ADD PUSH1 0x0 PUSH2 0x100 EXP DUP2 SLOAD DUP2 PUSH1 0xFF MUL NOT AND SWAP1 DUP4 ISZERO ISZERO MUL OR SWAP1 SSTORE POP PUSH1 0xE0 DUP3 ADD MLOAD DUP2 PUSH1 0x6 ADD PUSH1 0x1 PUSH2 0x100 EXP DUP2 SLOAD DUP2 PUSH20 0xFFFFFFFFFFFFFFFFFFFFFFFFFFFFFFFFFFFFFFFF MUL NOT AND SWAP1 DUP4 PUSH20 0xFFFFFFFFFFFFFFFFFFFFFFFFFFFFFFFFFFFFFFFF AND MUL OR SWAP1 SSTORE POP POP POP CALLER PUSH1 0x1 PUSH1 0x0 DUP4 DUP2 MSTORE PUSH1 0x20 ADD SWAP1 DUP2 MSTORE PUSH1 0x20 ADD PUSH1 0x0 KECCAK256 PUSH1 0x0 PUSH2 0x100 EXP DUP2 SLOAD DUP2 PUSH20 0xFFFFFFFFFFFFFFFFFFFFFFFFFFFFFFFFFFFFFFFF MUL NOT AND SWAP1 DUP4 PUSH20 0xFFFFFFFFFFFFFFFFFFFFFFFFFFFFFFFFFFFFFFFF AND MUL OR SWAP1 SSTORE POP PUSH32 0x9654E79A6F29FFF90577EE2C24638A110A77CABB965A5CF60BEB0ABF899D5DC9 CALLER DUP3 PUSH1 0x40 MLOAD PUSH2 0x77B SWAP3 SWAP2 SWAP1 PUSH2 0x1546 JUMP JUMPDEST PUSH1 0x40 MLOAD DUP1 SWAP2 SUB SWAP1 LOG1 POP POP POP JUMP JUMPDEST PUSH1 0x60 PUSH1 0x0 DUP1 DUP1 SLOAD SWAP1 POP PUSH8 0xFFFFFFFFFFFFFFFF DUP2 GT ISZERO PUSH2 0x7AA JUMPI PUSH2 0x7A9 PUSH2 0xFB2 JUMP JUMPDEST JUMPDEST PUSH1 0x40 MLOAD SWAP1 DUP1 DUP3 MSTORE DUP1 PUSH1 0x20 MUL PUSH1 0x20 ADD DUP3 ADD PUSH1 0x40 MSTORE DUP1 ISZERO PUSH2 0x7E3 JUMPI DUP2 PUSH1 0x20 ADD JUMPDEST PUSH2 0x7D0 PUSH2 0xC28 JUMP JUMPDEST DUP2 MSTORE PUSH1 0x20 ADD SWAP1 PUSH1 0x1 SWAP1 SUB SWAP1 DUP2 PUSH2 0x7C8 JUMPI SWAP1 POP JUMPDEST POP SWAP1 POP PUSH1 0x0 DUP1 JUMPDEST PUSH1 0x0 DUP1 SLOAD SWAP1 POP DUP2 LT ISZERO PUSH2 0xAD4 JUMPI CALLER PUSH20 0xFFFFFFFFFFFFFFFFFFFFFFFFFFFFFFFFFFFFFFFF AND PUSH1 0x1 PUSH1 0x0 DUP4 DUP2 MSTORE PUSH1 0x20 ADD SWAP1 DUP2 MSTORE PUSH1 0x20 ADD PUSH1 0x0 KECCAK256 PUSH1 0x0 SWAP1 SLOAD SWAP1 PUSH2 0x100 EXP SWAP1 DIV PUSH20 0xFFFFFFFFFFFFFFFFFFFFFFFFFFFFFFFFFFFFFFFF AND PUSH20 0xFFFFFFFFFFFFFFFFFFFFFFFFFFFFFFFFFFFFFFFF AND SUB PUSH2 0xAC1 JUMPI PUSH1 0x0 DUP2 DUP2 SLOAD DUP2 LT PUSH2 0x871 JUMPI PUSH2 0x870 PUSH2 0x1155 JUMP JUMPDEST JUMPDEST SWAP1 PUSH1 0x0 MSTORE PUSH1 0x20 PUSH1 0x0 KECCAK256 SWAP1 PUSH1 0x7 MUL ADD PUSH1 0x40 MLOAD DUP1 PUSH2 0x100 ADD PUSH1 0x40 MSTORE SWAP1 DUP2 PUSH1 0x0 DUP3 ADD SLOAD DUP2 MSTORE PUSH1 0x20 ADD PUSH1 0x1 DUP3 ADD PUSH1 0x0 SWAP1 SLOAD SWAP1 PUSH2 0x100 EXP SWAP1 DIV PUSH20 0xFFFFFFFFFFFFFFFFFFFFFFFFFFFFFFFFFFFFFFFF AND PUSH20 0xFFFFFFFFFFFFFFFFFFFFFFFFFFFFFFFFFFFFFFFF AND PUSH20 0xFFFFFFFFFFFFFFFFFFFFFFFFFFFFFFFFFFFFFFFF AND DUP2 MSTORE PUSH1 0x20 ADD PUSH1 0x2 DUP3 ADD DUP1 SLOAD PUSH2 0x8FB SWAP1 PUSH2 0x1240 JUMP JUMPDEST DUP1 PUSH1 0x1F ADD PUSH1 0x20 DUP1 SWAP2 DIV MUL PUSH1 0x20 ADD PUSH1 0x40 MLOAD SWAP1 DUP2 ADD PUSH1 0x40 MSTORE DUP1 SWAP3 SWAP2 SWAP1 DUP2 DUP2 MSTORE PUSH1 0x20 ADD DUP3 DUP1 SLOAD PUSH2 0x927 SWAP1 PUSH2 0x1240 JUMP JUMPDEST DUP1 ISZERO PUSH2 0x974 JUMPI DUP1 PUSH1 0x1F LT PUSH2 0x949 JUMPI PUSH2 0x100 DUP1 DUP4 SLOAD DIV MUL DUP4 MSTORE SWAP2 PUSH1 0x20 ADD SWAP2 PUSH2 0x974 JUMP JUMPDEST DUP3 ADD SWAP2 SWAP1 PUSH1 0x0 MSTORE PUSH1 0x20 PUSH1 0x0 KECCAK256 SWAP1 JUMPDEST DUP2 SLOAD DUP2 MSTORE SWAP1 PUSH1 0x1 ADD SWAP1 PUSH1 0x20 ADD DUP1 DUP4 GT PUSH2 0x957 JUMPI DUP3 SWAP1 SUB PUSH1 0x1F AND DUP3 ADD SWAP2 JUMPDEST POP POP POP POP POP DUP2 MSTORE PUSH1 0x20 ADD PUSH1 0x3 DUP3 ADD DUP1 SLOAD PUSH2 0x98D SWAP1 PUSH2 0x1240 JUMP JUMPDEST DUP1 PUSH1 0x1F ADD PUSH1 0x20 DUP1 SWAP2 DIV MUL PUSH1 0x20 ADD PUSH1 0x40 MLOAD SWAP1 DUP2 ADD PUSH1 0x40 MSTORE DUP1 SWAP3 SWAP2 SWAP1 DUP2 DUP2 MSTORE PUSH1 0x20 ADD DUP3 DUP1 SLOAD PUSH2 0x9B9 SWAP1 PUSH2 0x1240 JUMP JUMPDEST DUP1 ISZERO PUSH2 0xA06 JUMPI DUP1 PUSH1 0x1F LT PUSH2 0x9DB JUMPI PUSH2 0x100 DUP1 DUP4 SLOAD DIV MUL DUP4 MSTORE SWAP2 PUSH1 0x20 ADD SWAP2 PUSH2 0xA06 JUMP JUMPDEST DUP3 ADD SWAP2 SWAP1 PUSH1 0x0 MSTORE PUSH1 0x20 PUSH1 0x0 KECCAK256 SWAP1 JUMPDEST DUP2 SLOAD DUP2 MSTORE SWAP1 PUSH1 0x1 ADD SWAP1 PUSH1 0x20 ADD DUP1 DUP4 GT PUSH2 0x9E9 JUMPI DUP3 SWAP1 SUB PUSH1 0x1F AND DUP3 ADD SWAP2 JUMPDEST POP POP POP POP POP DUP2 MSTORE PUSH1 0x20 ADD PUSH1 0x4 DUP3 ADD SLOAD DUP2 MSTORE PUSH1 0x20 ADD PUSH1 0x5 DUP3 ADD SLOAD DUP2 MSTORE PUSH1 0x20 ADD PUSH1 0x6 DUP3 ADD PUSH1 0x0 SWAP1 SLOAD SWAP1 PUSH2 0x100 EXP SWAP1 DIV PUSH1 0xFF AND ISZERO ISZERO ISZERO ISZERO DUP2 MSTORE PUSH1 0x20 ADD PUSH1 0x6 DUP3 ADD PUSH1 0x1 SWAP1 SLOAD SWAP1 PUSH2 0x100 EXP SWAP1 DIV PUSH20 0xFFFFFFFFFFFFFFFFFFFFFFFFFFFFFFFFFFFFFFFF AND PUSH20 0xFFFFFFFFFFFFFFFFFFFFFFFFFFFFFFFFFFFFFFFF AND PUSH20 0xFFFFFFFFFFFFFFFFFFFFFFFFFFFFFFFFFFFFFFFF AND DUP2 MSTORE POP POP DUP4 DUP4 DUP2 MLOAD DUP2 LT PUSH2 0xAA7 JUMPI PUSH2 0xAA6 PUSH2 0x1155 JUMP JUMPDEST JUMPDEST PUSH1 0x20 MUL PUSH1 0x20 ADD ADD DUP2 SWAP1 MSTORE POP DUP2 DUP1 PUSH2 0xABD SWAP1 PUSH2 0x1271 JUMP JUMPDEST SWAP3 POP POP JUMPDEST DUP1 DUP1 PUSH2 0xACC SWAP1 PUSH2 0x1271 JUMP JUMPDEST SWAP2 POP POP PUSH2 0x7EA JUMP JUMPDEST POP PUSH1 0x0 DUP2 PUSH8 0xFFFFFFFFFFFFFFFF DUP2 GT ISZERO PUSH2 0xAF1 JUMPI PUSH2 0xAF0 PUSH2 0xFB2 JUMP JUMPDEST JUMPDEST PUSH1 0x40 MLOAD SWAP1 DUP1 DUP3 MSTORE DUP1 PUSH1 0x20 MUL PUSH1 0x20 ADD DUP3 ADD PUSH1 0x40 MSTORE DUP1 ISZERO PUSH2 0xB2A JUMPI DUP2 PUSH1 0x20 ADD JUMPDEST PUSH2 0xB17 PUSH2 0xC28 JUMP JUMPDEST DUP2 MSTORE PUSH1 0x20 ADD SWAP1 PUSH1 0x1 SWAP1 SUB SWAP1 DUP2 PUSH2 0xB0F JUMPI SWAP1 POP JUMPDEST POP SWAP1 POP PUSH1 0x0 JUMPDEST DUP3 DUP2 LT ISZERO PUSH2 0xB84 JUMPI DUP4 DUP2 DUP2 MLOAD DUP2 LT PUSH2 0xB4B JUMPI PUSH2 0xB4A PUSH2 0x1155 JUMP JUMPDEST JUMPDEST PUSH1 0x20 MUL PUSH1 0x20 ADD ADD MLOAD DUP3 DUP3 DUP2 MLOAD DUP2 LT PUSH2 0xB66 JUMPI PUSH2 0xB65 PUSH2 0x1155 JUMP JUMPDEST JUMPDEST PUSH1 0x20 MUL PUSH1 0x20 ADD ADD DUP2 SWAP1 MSTORE POP DUP1 DUP1 PUSH2 0xB7C SWAP1 PUSH2 0x1271 JUMP JUMPDEST SWAP2 POP POP PUSH2 0xB30 JUMP JUMPDEST POP DUP1 SWAP4 POP POP POP POP SWAP1 JUMP JUMPDEST PUSH1 0x0 DUP1 DUP3 DUP2 SLOAD DUP2 LT PUSH2 0xBA3 JUMPI PUSH2 0xBA2 PUSH2 0x1155 JUMP JUMPDEST JUMPDEST SWAP1 PUSH1 0x0 MSTORE PUSH1 0x20 PUSH1 0x0 KECCAK256 SWAP1 PUSH1 0x7 MUL ADD PUSH1 0x4 ADD SLOAD SWAP1 POP PUSH1 0x1 DUP2 PUSH2 0xBC4 SWAP2 SWAP1 PUSH2 0x156F JUMP JUMPDEST PUSH1 0x0 DUP4 DUP2 SLOAD DUP2 LT PUSH2 0xBD8 JUMPI PUSH2 0xBD7 PUSH2 0x1155 JUMP JUMPDEST JUMPDEST SWAP1 PUSH1 0x0 MSTORE PUSH1 0x20 PUSH1 0x0 KECCAK256 SWAP1 PUSH1 0x7 MUL ADD PUSH1 0x4 ADD DUP2 SWAP1 SSTORE POP PUSH32 0xC59201F408FBAE001B55AD98F7034E9AD7216C634D38C03C3A6BF75E2AEB3656 DUP3 PUSH1 0x40 MLOAD PUSH2 0xC1C SWAP2 SWAP1 PUSH2 0x11F6 JUMP JUMPDEST PUSH1 0x40 MLOAD DUP1 SWAP2 SUB SWAP1 LOG1 POP POP JUMP JUMPDEST PUSH1 0x40 MLOAD DUP1 PUSH2 0x100 ADD PUSH1 0x40 MSTORE DUP1 PUSH1 0x0 DUP2 MSTORE PUSH1 0x20 ADD PUSH1 0x0 PUSH20 0xFFFFFFFFFFFFFFFFFFFFFFFFFFFFFFFFFFFFFFFF AND DUP2 MSTORE PUSH1 0x20 ADD PUSH1 0x60 DUP2 MSTORE PUSH1 0x20 ADD PUSH1 0x60 DUP2 MSTORE PUSH1 0x20 ADD PUSH1 0x0 DUP2 MSTORE PUSH1 0x20 ADD PUSH1 0x0 DUP2 MSTORE PUSH1 0x20 ADD PUSH1 0x0 ISZERO ISZERO DUP2 MSTORE PUSH1 0x20 ADD PUSH1 0x0 PUSH20 0xFFFFFFFFFFFFFFFFFFFFFFFFFFFFFFFFFFFFFFFF AND DUP2 MSTORE POP SWAP1 JUMP JUMPDEST PUSH1 0x0 PUSH1 0x40 MLOAD SWAP1 POP SWAP1 JUMP JUMPDEST PUSH1 0x0 DUP1 REVERT JUMPDEST PUSH1 0x0 DUP1 REVERT JUMPDEST PUSH1 0x0 DUP2 SWAP1 POP SWAP2 SWAP1 POP JUMP JUMPDEST PUSH2 0xCC2 DUP2 PUSH2 0xCAF JUMP JUMPDEST DUP2 EQ PUSH2 0xCCD JUMPI PUSH1 0x0 DUP1 REVERT JUMPDEST POP JUMP JUMPDEST PUSH1 0x0 DUP2 CALLDATALOAD SWAP1 POP PUSH2 0xCDF DUP2 PUSH2 0xCB9 JUMP JUMPDEST SWAP3 SWAP2 POP POP JUMP JUMPDEST PUSH1 0x0 PUSH1 0x20 DUP3 DUP5 SUB SLT ISZERO PUSH2 0xCFB JUMPI PUSH2 0xCFA PUSH2 0xCA5 JUMP JUMPDEST JUMPDEST PUSH1 0x0 PUSH2 0xD09 DUP5 DUP3 DUP6 ADD PUSH2 0xCD0 JUMP JUMPDEST SWAP2 POP POP SWAP3 SWAP2 POP POP JUMP JUMPDEST PUSH1 0x0 DUP2 MLOAD SWAP1 POP SWAP2 SWAP1 POP JUMP JUMPDEST PUSH1 0x0 DUP3 DUP3 MSTORE PUSH1 0x20 DUP3 ADD SWAP1 POP SWAP3 SWAP2 POP POP JUMP JUMPDEST PUSH1 0x0 DUP2 SWAP1 POP PUSH1 0x20 DUP3 ADD SWAP1 POP SWAP2 SWAP1 POP JUMP JUMPDEST PUSH2 0xD47 DUP2 PUSH2 0xCAF JUMP JUMPDEST DUP3 MSTORE POP POP JUMP JUMPDEST PUSH1 0x0 PUSH20 0xFFFFFFFFFFFFFFFFFFFFFFFFFFFFFFFFFFFFFFFF DUP3 AND SWAP1 POP SWAP2 SWAP1 POP JUMP JUMPDEST PUSH1 0x0 PUSH2 0xD78 DUP3 PUSH2 0xD4D JUMP JUMPDEST SWAP1 POP SWAP2 SWAP1 POP JUMP JUMPDEST PUSH2 0xD88 DUP2 PUSH2 0xD6D JUMP JUMPDEST DUP3 MSTORE POP POP JUMP JUMPDEST PUSH1 0x0 DUP2 MLOAD SWAP1 POP SWAP2 SWAP1 POP JUMP JUMPDEST PUSH1 0x0 DUP3 DUP3 MSTORE PUSH1 0x20 DUP3 ADD SWAP1 POP SWAP3 SWAP2 POP POP JUMP JUMPDEST PUSH1 0x0 JUMPDEST DUP4 DUP2 LT ISZERO PUSH2 0xDC8 JUMPI DUP1 DUP3 ADD MLOAD DUP2 DUP5 ADD MSTORE PUSH1 0x20 DUP2 ADD SWAP1 POP PUSH2 0xDAD JUMP JUMPDEST PUSH1 0x0 DUP5 DUP5 ADD MSTORE POP POP POP POP JUMP JUMPDEST PUSH1 0x0 PUSH1 0x1F NOT PUSH1 0x1F DUP4 ADD AND SWAP1 POP SWAP2 SWAP1 POP JUMP JUMPDEST PUSH1 0x0 PUSH2 0xDF0 DUP3 PUSH2 0xD8E JUMP JUMPDEST PUSH2 0xDFA DUP2 DUP6 PUSH2 0xD99 JUMP JUMPDEST SWAP4 POP PUSH2 0xE0A DUP2 DUP6 PUSH1 0x20 DUP7 ADD PUSH2 0xDAA JUMP JUMPDEST PUSH2 0xE13 DUP2 PUSH2 0xDD4 JUMP JUMPDEST DUP5 ADD SWAP2 POP POP SWAP3 SWAP2 POP POP JUMP JUMPDEST PUSH1 0x0 DUP2 ISZERO ISZERO SWAP1 POP SWAP2 SWAP1 POP JUMP JUMPDEST PUSH2 0xE33 DUP2 PUSH2 0xE1E JUMP JUMPDEST DUP3 MSTORE POP POP JUMP JUMPDEST PUSH1 0x0 PUSH2 0x100 DUP4 ADD PUSH1 0x0 DUP4 ADD MLOAD PUSH2 0xE52 PUSH1 0x0 DUP7 ADD DUP3 PUSH2 0xD3E JUMP JUMPDEST POP PUSH1 0x20 DUP4 ADD MLOAD PUSH2 0xE65 PUSH1 0x20 DUP7 ADD DUP3 PUSH2 0xD7F JUMP JUMPDEST POP PUSH1 0x40 DUP4 ADD MLOAD DUP5 DUP3 SUB PUSH1 0x40 DUP7 ADD MSTORE PUSH2 0xE7D DUP3 DUP3 PUSH2 0xDE5 JUMP JUMPDEST SWAP2 POP POP PUSH1 0x60 DUP4 ADD MLOAD DUP5 DUP3 SUB PUSH1 0x60 DUP7 ADD MSTORE PUSH2 0xE97 DUP3 DUP3 PUSH2 0xDE5 JUMP JUMPDEST SWAP2 POP POP PUSH1 0x80 DUP4 ADD MLOAD PUSH2 0xEAC PUSH1 0x80 DUP7 ADD DUP3 PUSH2 0xD3E JUMP JUMPDEST POP PUSH1 0xA0 DUP4 ADD MLOAD PUSH2 0xEBF PUSH1 0xA0 DUP7 ADD DUP3 PUSH2 0xD3E JUMP JUMPDEST POP PUSH1 0xC0 DUP4 ADD MLOAD PUSH2 0xED2 PUSH1 0xC0 DUP7 ADD DUP3 PUSH2 0xE2A JUMP JUMPDEST POP PUSH1 0xE0 DUP4 ADD MLOAD PUSH2 0xEE5 PUSH1 0xE0 DUP7 ADD DUP3 PUSH2 0xD7F JUMP JUMPDEST POP DUP1 SWAP2 POP POP SWAP3 SWAP2 POP POP JUMP JUMPDEST PUSH1 0x0 PUSH2 0xEFC DUP4 DUP4 PUSH2 0xE39 JUMP JUMPDEST SWAP1 POP SWAP3 SWAP2 POP POP JUMP JUMPDEST PUSH1 0x0 PUSH1 0x20 DUP3 ADD SWAP1 POP SWAP2 SWAP1 POP JUMP JUMPDEST PUSH1 0x0 PUSH2 0xF1C DUP3 PUSH2 0xD12 JUMP JUMPDEST PUSH2 0xF26 DUP2 DUP6 PUSH2 0xD1D JUMP JUMPDEST SWAP4 POP DUP4 PUSH1 0x20 DUP3 MUL DUP6 ADD PUSH2 0xF38 DUP6 PUSH2 0xD2E JUMP JUMPDEST DUP1 PUSH1 0x0 JUMPDEST DUP6 DUP2 LT ISZERO PUSH2 0xF74 JUMPI DUP5 DUP5 SUB DUP10 MSTORE DUP2 MLOAD PUSH2 0xF55 DUP6 DUP3 PUSH2 0xEF0 JUMP JUMPDEST SWAP5 POP PUSH2 0xF60 DUP4 PUSH2 0xF04 JUMP JUMPDEST SWAP3 POP PUSH1 0x20 DUP11 ADD SWAP10 POP POP PUSH1 0x1 DUP2 ADD SWAP1 POP PUSH2 0xF3C JUMP JUMPDEST POP DUP3 SWAP8 POP DUP8 SWAP6 POP POP POP POP POP POP SWAP3 SWAP2 POP POP JUMP JUMPDEST PUSH1 0x0 PUSH1 0x20 DUP3 ADD SWAP1 POP DUP2 DUP2 SUB PUSH1 0x0 DUP4 ADD MSTORE PUSH2 0xFA0 DUP2 DUP5 PUSH2 0xF11 JUMP JUMPDEST SWAP1 POP SWAP3 SWAP2 POP POP JUMP JUMPDEST PUSH1 0x0 DUP1 REVERT JUMPDEST PUSH1 0x0 DUP1 REVERT JUMPDEST PUSH32 0x4E487B7100000000000000000000000000000000000000000000000000000000 PUSH1 0x0 MSTORE PUSH1 0x41 PUSH1 0x4 MSTORE PUSH1 0x24 PUSH1 0x0 REVERT JUMPDEST PUSH2 0xFEA DUP3 PUSH2 0xDD4 JUMP JUMPDEST DUP2 ADD DUP2 DUP2 LT PUSH8 0xFFFFFFFFFFFFFFFF DUP3 GT OR ISZERO PUSH2 0x1009 JUMPI PUSH2 0x1008 PUSH2 0xFB2 JUMP JUMPDEST JUMPDEST DUP1 PUSH1 0x40 MSTORE POP POP POP JUMP JUMPDEST PUSH1 0x0 PUSH2 0x101C PUSH2 0xC9B JUMP JUMPDEST SWAP1 POP PUSH2 0x1028 DUP3 DUP3 PUSH2 0xFE1 JUMP JUMPDEST SWAP2 SWAP1 POP JUMP JUMPDEST PUSH1 0x0 PUSH8 0xFFFFFFFFFFFFFFFF DUP3 GT ISZERO PUSH2 0x1048 JUMPI PUSH2 0x1047 PUSH2 0xFB2 JUMP JUMPDEST JUMPDEST PUSH2 0x1051 DUP3 PUSH2 0xDD4 JUMP JUMPDEST SWAP1 POP PUSH1 0x20 DUP2 ADD SWAP1 POP SWAP2 SWAP1 POP JUMP JUMPDEST DUP3 DUP2 DUP4 CALLDATACOPY PUSH1 0x0 DUP4 DUP4 ADD MSTORE POP POP POP JUMP JUMPDEST PUSH1 0x0 PUSH2 0x1080 PUSH2 0x107B DUP5 PUSH2 0x102D JUMP JUMPDEST PUSH2 0x1012 JUMP JUMPDEST SWAP1 POP DUP3 DUP2 MSTORE PUSH1 0x20 DUP2 ADD DUP5 DUP5 DUP5 ADD GT ISZERO PUSH2 0x109C JUMPI PUSH2 0x109B PUSH2 0xFAD JUMP JUMPDEST JUMPDEST PUSH2 0x10A7 DUP5 DUP3 DUP6 PUSH2 0x105E JUMP JUMPDEST POP SWAP4 SWAP3 POP POP POP JUMP JUMPDEST PUSH1 0x0 DUP3 PUSH1 0x1F DUP4 ADD SLT PUSH2 0x10C4 JUMPI PUSH2 0x10C3 PUSH2 0xFA8 JUMP JUMPDEST JUMPDEST DUP2 CALLDATALOAD PUSH2 0x10D4 DUP5 DUP3 PUSH1 0x20 DUP7 ADD PUSH2 0x106D JUMP JUMPDEST SWAP2 POP POP SWAP3 SWAP2 POP POP JUMP JUMPDEST PUSH1 0x0 DUP1 PUSH1 0x40 DUP4 DUP6 SUB SLT ISZERO PUSH2 0x10F4 JUMPI PUSH2 0x10F3 PUSH2 0xCA5 JUMP JUMPDEST JUMPDEST PUSH1 0x0 DUP4 ADD CALLDATALOAD PUSH8 0xFFFFFFFFFFFFFFFF DUP2 GT ISZERO PUSH2 0x1112 JUMPI PUSH2 0x1111 PUSH2 0xCAA JUMP JUMPDEST JUMPDEST PUSH2 0x111E DUP6 DUP3 DUP7 ADD PUSH2 0x10AF JUMP JUMPDEST SWAP3 POP POP PUSH1 0x20 DUP4 ADD CALLDATALOAD PUSH8 0xFFFFFFFFFFFFFFFF DUP2 GT ISZERO PUSH2 0x113F JUMPI PUSH2 0x113E PUSH2 0xCAA JUMP JUMPDEST JUMPDEST PUSH2 0x114B DUP6 DUP3 DUP7 ADD PUSH2 0x10AF JUMP JUMPDEST SWAP2 POP POP SWAP3 POP SWAP3 SWAP1 POP JUMP JUMPDEST PUSH32 0x4E487B7100000000000000000000000000000000000000000000000000000000 PUSH1 0x0 MSTORE PUSH1 0x32 PUSH1 0x4 MSTORE PUSH1 0x24 PUSH1 0x0 REVERT JUMPDEST PUSH32 0x4E487B7100000000000000000000000000000000000000000000000000000000 PUSH1 0x0 MSTORE PUSH1 0x11 PUSH1 0x4 MSTORE PUSH1 0x24 PUSH1 0x0 REVERT JUMPDEST PUSH1 0x0 PUSH2 0x11BE DUP3 PUSH2 0xCAF JUMP JUMPDEST SWAP2 POP PUSH2 0x11C9 DUP4 PUSH2 0xCAF JUMP JUMPDEST SWAP3 POP DUP3 DUP3 SUB SWAP1 POP DUP2 DUP2 GT ISZERO PUSH2 0x11E1 JUMPI PUSH2 0x11E0 PUSH2 0x1184 JUMP JUMPDEST JUMPDEST SWAP3 SWAP2 POP POP JUMP JUMPDEST PUSH2 0x11F0 DUP2 PUSH2 0xCAF JUMP JUMPDEST DUP3 MSTORE POP POP JUMP JUMPDEST PUSH1 0x0 PUSH1 0x20 DUP3 ADD SWAP1 POP PUSH2 0x120B PUSH1 0x0 DUP4 ADD DUP5 PUSH2 0x11E7 JUMP JUMPDEST SWAP3 SWAP2 POP POP JUMP JUMPDEST PUSH32 0x4E487B7100000000000000000000000000000000000000000000000000000000 PUSH1 0x0 MSTORE PUSH1 0x22 PUSH1 0x4 MSTORE PUSH1 0x24 PUSH1 0x0 REVERT JUMPDEST PUSH1 0x0 PUSH1 0x2 DUP3 DIV SWAP1 POP PUSH1 0x1 DUP3 AND DUP1 PUSH2 0x1258 JUMPI PUSH1 0x7F DUP3 AND SWAP2 POP JUMPDEST PUSH1 0x20 DUP3 LT DUP2 SUB PUSH2 0x126B JUMPI PUSH2 0x126A PUSH2 0x1211 JUMP JUMPDEST JUMPDEST POP SWAP2 SWAP1 POP JUMP JUMPDEST PUSH1 0x0 PUSH2 0x127C DUP3 PUSH2 0xCAF JUMP JUMPDEST SWAP2 POP PUSH32 0xFFFFFFFFFFFFFFFFFFFFFFFFFFFFFFFFFFFFFFFFFFFFFFFFFFFFFFFFFFFFFFFF DUP3 SUB PUSH2 0x12AE JUMPI PUSH2 0x12AD PUSH2 0x1184 JUMP JUMPDEST JUMPDEST PUSH1 0x1 DUP3 ADD SWAP1 POP SWAP2 SWAP1 POP JUMP JUMPDEST PUSH1 0x0 DUP2 SWAP1 POP DUP2 PUSH1 0x0 MSTORE PUSH1 0x20 PUSH1 0x0 KECCAK256 SWAP1 POP SWAP2 SWAP1 POP JUMP JUMPDEST PUSH1 0x0 PUSH1 0x20 PUSH1 0x1F DUP4 ADD DIV SWAP1 POP SWAP2 SWAP1 POP JUMP JUMPDEST PUSH1 0x0 DUP3 DUP3 SHL SWAP1 POP SWAP3 SWAP2 POP POP JUMP JUMPDEST PUSH1 0x0 PUSH1 0x8 DUP4 MUL PUSH2 0x131B PUSH32 0xFFFFFFFFFFFFFFFFFFFFFFFFFFFFFFFFFFFFFFFFFFFFFFFFFFFFFFFFFFFFFFFF DUP3 PUSH2 0x12DE JUMP JUMPDEST PUSH2 0x1325 DUP7 DUP4 PUSH2 0x12DE JUMP JUMPDEST SWAP6 POP DUP1 NOT DUP5 AND SWAP4 POP DUP1 DUP7 AND DUP5 OR SWAP3 POP POP POP SWAP4 SWAP3 POP POP POP JUMP JUMPDEST PUSH1 0x0 DUP2 SWAP1 POP SWAP2 SWAP1 POP JUMP JUMPDEST PUSH1 0x0 PUSH2 0x1362 PUSH2 0x135D PUSH2 0x1358 DUP5 PUSH2 0xCAF JUMP JUMPDEST PUSH2 0x133D JUMP JUMPDEST PUSH2 0xCAF JUMP JUMPDEST SWAP1 POP SWAP2 SWAP1 POP JUMP JUMPDEST PUSH1 0x0 DUP2 SWAP1 POP SWAP2 SWAP1 POP JUMP JUMPDEST PUSH2 0x137C DUP4 PUSH2 0x1347 JUMP JUMPDEST PUSH2 0x1390 PUSH2 0x1388 DUP3 PUSH2 0x1369 JUMP JUMPDEST DUP5 DUP5 SLOAD PUSH2 0x12EB JUMP JUMPDEST DUP3 SSTORE POP POP POP POP JUMP JUMPDEST PUSH1 0x0 SWAP1 JUMP JUMPDEST PUSH2 0x13A5 PUSH2 0x1398 JUMP JUMPDEST PUSH2 0x13B0 DUP2 DUP5 DUP5 PUSH2 0x1373 JUMP JUMPDEST POP POP POP JUMP JUMPDEST JUMPDEST DUP2 DUP2 LT ISZERO PUSH2 0x13D4 JUMPI PUSH2 0x13C9 PUSH1 0x0 DUP3 PUSH2 0x139D JUMP JUMPDEST PUSH1 0x1 DUP2 ADD SWAP1 POP PUSH2 0x13B6 JUMP JUMPDEST POP POP JUMP JUMPDEST PUSH1 0x1F DUP3 GT ISZERO PUSH2 0x1419 JUMPI PUSH2 0x13EA DUP2 PUSH2 0x12B9 JUMP JUMPDEST PUSH2 0x13F3 DUP5 PUSH2 0x12CE JUMP JUMPDEST DUP2 ADD PUSH1 0x20 DUP6 LT ISZERO PUSH2 0x1402 JUMPI DUP2 SWAP1 POP JUMPDEST PUSH2 0x1416 PUSH2 0x140E DUP6 PUSH2 0x12CE JUMP JUMPDEST DUP4 ADD DUP3 PUSH2 0x13B5 JUMP JUMPDEST POP POP JUMPDEST POP POP POP JUMP JUMPDEST PUSH1 0x0 DUP3 DUP3 SHR SWAP1 POP SWAP3 SWAP2 POP POP JUMP JUMPDEST PUSH1 0x0 PUSH2 0x143C PUSH1 0x0 NOT DUP5 PUSH1 0x8 MUL PUSH2 0x141E JUMP JUMPDEST NOT DUP1 DUP4 AND SWAP2 POP POP SWAP3 SWAP2 POP POP JUMP JUMPDEST PUSH1 0x0 PUSH2 0x1455 DUP4 DUP4 PUSH2 0x142B JUMP JUMPDEST SWAP2 POP DUP3 PUSH1 0x2 MUL DUP3 OR SWAP1 POP SWAP3 SWAP2 POP POP JUMP JUMPDEST PUSH2 0x146E DUP3 PUSH2 0xD8E JUMP JUMPDEST PUSH8 0xFFFFFFFFFFFFFFFF DUP2 GT ISZERO PUSH2 0x1487 JUMPI PUSH2 0x1486 PUSH2 0xFB2 JUMP JUMPDEST JUMPDEST PUSH2 0x1491 DUP3 SLOAD PUSH2 0x1240 JUMP JUMPDEST PUSH2 0x149C DUP3 DUP3 DUP6 PUSH2 0x13D8 JUMP JUMPDEST PUSH1 0x0 PUSH1 0x20 SWAP1 POP PUSH1 0x1F DUP4 GT PUSH1 0x1 DUP2 EQ PUSH2 0x14CF JUMPI PUSH1 0x0 DUP5 ISZERO PUSH2 0x14BD JUMPI DUP3 DUP8 ADD MLOAD SWAP1 POP JUMPDEST PUSH2 0x14C7 DUP6 DUP3 PUSH2 0x1449 JUMP JUMPDEST DUP7 SSTORE POP PUSH2 0x152F JUMP JUMPDEST PUSH1 0x1F NOT DUP5 AND PUSH2 0x14DD DUP7 PUSH2 0x12B9 JUMP JUMPDEST PUSH1 0x0 JUMPDEST DUP3 DUP2 LT ISZERO PUSH2 0x1505 JUMPI DUP5 DUP10 ADD MLOAD DUP3 SSTORE PUSH1 0x1 DUP3 ADD SWAP2 POP PUSH1 0x20 DUP6 ADD SWAP5 POP PUSH1 0x20 DUP2 ADD SWAP1 POP PUSH2 0x14E0 JUMP JUMPDEST DUP7 DUP4 LT ISZERO PUSH2 0x1522 JUMPI DUP5 DUP10 ADD MLOAD PUSH2 0x151E PUSH1 0x1F DUP10 AND DUP3 PUSH2 0x142B JUMP JUMPDEST DUP4 SSTORE POP JUMPDEST PUSH1 0x1 PUSH1 0x2 DUP9 MUL ADD DUP9 SSTORE POP POP POP JUMPDEST POP POP POP POP POP POP JUMP JUMPDEST PUSH2 0x1540 DUP2 PUSH2 0xD6D JUMP JUMPDEST DUP3 MSTORE POP POP JUMP JUMPDEST PUSH1 0x0 PUSH1 0x40 DUP3 ADD SWAP1 POP PUSH2 0x155B PUSH1 0x0 DUP4 ADD DUP6 PUSH2 0x1537 JUMP JUMPDEST PUSH2 0x1568 PUSH1 0x20 DUP4 ADD DUP5 PUSH2 0x11E7 JUMP JUMPDEST SWAP4 SWAP3 POP POP POP JUMP JUMPDEST PUSH1 0x0 PUSH2 0x157A DUP3 PUSH2 0xCAF JUMP JUMPDEST SWAP2 POP PUSH2 0x1585 DUP4 PUSH2 0xCAF JUMP JUMPDEST SWAP3 POP DUP3 DUP3 ADD SWAP1 POP DUP1 DUP3 GT ISZERO PUSH2 0x159D JUMPI PUSH2 0x159C PUSH2 0x1184 JUMP JUMPDEST JUMPDEST SWAP3 SWAP2 POP POP JUMP INVALID LOG2 PUSH5 0x6970667358 0x22 SLT KECCAK256 PREVRANDAO 0x1E 0xAB SHR 0xD8 PC 0xD2 PUSH2 0xF11C DUP4 SWAP15 LT 0x49 0x4E GASPRICE DUP12 GASLIMIT LOG0 BYTE DUP9 0xB2 0xEC 0xB3 0xDE DUP15 XOR 0xDE JUMP 0xD8 CALLCODE GT PUSH5 0x736F6C6343 STOP ADDMOD SLT STOP CALLER "
				},
				"gasEstimates": {
					"creation": {
						"codeDepositCost": "1118600",
						"executionCost": "1160",
						"totalCost": "1119760"
					},
					"external": {
						"addArticle(string,string)": "infinite",
						"downVote(uint256)": "infinite",
						"getArticles()": "infinite",
						"getMyArticles()": "infinite",
						"upVote(uint256)": "infinite"
					}
				},
				"methodIdentifiers": {
					"addArticle(string,string)": "6ec67ec9",
					"downVote(uint256)": "1ae9392d",
					"getArticles()": "6529f44a",
					"getMyArticles()": "b5df05fc",
					"upVote(uint256)": "ec859db5"
				}
			},
			"storageLayout": {
				"storage": [
					{
						"astId": 36,
						"contract": "Article.sol:ArticleContract",
						"label": "articles",
						"offset": 0,
						"slot": "0",
						"type": "t_array(t_struct(Article)32_storage)dyn_storage"
					},
					{
						"astId": 40,
						"contract": "Article.sol:ArticleContract",
						"label": "articleToUser",
						"offset": 0,
						"slot": "1",
						"type": "t_mapping(t_uint256,t_address)"
					}
				],
				"types": {
					"t_address": {
						"encoding": "inplace",
						"label": "address",
						"numberOfBytes": "20"
					},
					"t_array(t_struct(Article)32_storage)dyn_storage": {
						"base": "t_struct(Article)32_storage",
						"encoding": "dynamic_array",
						"label": "struct ArticleContract.Article[]",
						"numberOfBytes": "32"
					},
					"t_bool": {
						"encoding": "inplace",
						"label": "bool",
						"numberOfBytes": "1"
					},
					"t_mapping(t_uint256,t_address)": {
						"encoding": "mapping",
						"key": "t_uint256",
						"label": "mapping(uint256 => address)",
						"numberOfBytes": "32",
						"value": "t_address"
					},
					"t_string_storage": {
						"encoding": "bytes",
						"label": "string",
						"numberOfBytes": "32"
					},
					"t_struct(Article)32_storage": {
						"encoding": "inplace",
						"label": "struct ArticleContract.Article",
						"members": [
							{
								"astId": 17,
								"contract": "Article.sol:ArticleContract",
								"label": "id",
								"offset": 0,
								"slot": "0",
								"type": "t_uint256"
							},
							{
								"astId": 19,
								"contract": "Article.sol:ArticleContract",
								"label": "userAddr",
								"offset": 0,
								"slot": "1",
								"type": "t_address"
							},
							{
								"astId": 21,
								"contract": "Article.sol:ArticleContract",
								"label": "title",
								"offset": 0,
								"slot": "2",
								"type": "t_string_storage"
							},
							{
								"astId": 23,
								"contract": "Article.sol:ArticleContract",
								"label": "content",
								"offset": 0,
								"slot": "3",
								"type": "t_string_storage"
							},
							{
								"astId": 25,
								"contract": "Article.sol:ArticleContract",
								"label": "upvotes",
								"offset": 0,
								"slot": "4",
								"type": "t_uint256"
							},
							{
								"astId": 27,
								"contract": "Article.sol:ArticleContract",
								"label": "downvotes",
								"offset": 0,
								"slot": "5",
								"type": "t_uint256"
							},
							{
								"astId": 29,
								"contract": "Article.sol:ArticleContract",
								"label": "isvalidated",
								"offset": 0,
								"slot": "6",
								"type": "t_bool"
							},
							{
								"astId": 31,
								"contract": "Article.sol:ArticleContract",
								"label": "validator",
								"offset": 1,
								"slot": "6",
								"type": "t_address"
							}
						],
						"numberOfBytes": "224"
					},
					"t_uint256": {
						"encoding": "inplace",
						"label": "uint256",
						"numberOfBytes": "32"
					}
				}
			},
			"userdoc": {
				"kind": "user",
				"methods": {},
				"version": 1
			}
		}
	}
}